:020000040800F2
:10000000C0090020C1010008EB3F000805330008CB
:10001000E93F0008990C00080143000800000000B7
:10002000000000000000000000000000FD4100088A
:10003000150E0008000000000D400008FF410008F8
:10004000DB010008DB010008DB010008DB01000820
:10005000DB010008DB010008DB010008DB01000810
:10006000DB010008DB010008DB010008DB01000800
:10007000DB010008DB010008DB010008DB010008F0
:10008000DB010008DB010008DB010008DB010008E0
:10009000DB010008DB010008DB010008DB010008D0
:1000A000DB010008DB010008DB010008DB010008C0
:1000B000DB010008DB010008DB010008DB010008B0
:1000C000DB010008DB010008DB010008DB010008A0
:1000D000DB010008DB010008DB010008DB01000890
:1000E000DB010008DB010008DB010008DB01000880
:1000F000DB010008DB010008DB010008DB01000870
:10010000DB010008DB010008DB010008DB0100085F
:10011000DB010008DB010008DB010008DB0100084F
:10012000DB010008DB010008DB010008DB0100083F
:10013000DB010008DB010008DB010008DB0100082F
:10014000DB010008DB010008DB010008DB0100081F
:10015000DB010008DB010008DB010008DB0100080F
:10016000DB010008DB010008DB010008DB010008FF
:10017000DB010008DB010008DB01000800000000D3
:10018000DB010008DB010008DB010008DB010008DF
:10019000DB010008DB010008DB010008DB010008CF
:1001A000DB010008DB010008DB010008DFF80CD0F0
:1001B00000F0A2F80048004755490008C009002097
:1001C0000648804706480047FEE7FEE7FEE7FEE7F1
:1001D000FEE7FEE7FEE7FEE7FEE7FEE7AD420008CA
:1001E000AD0100082DE9F05F0546002092469B46D0
:1001F00088460646814640241BE02846414647463D
:10020000224600F069F853465A46C01A914110D36D
:1002100011461846224600F050F82D1A67EB0108E7
:100220004F4622460120002100F047F817EB000955
:100230004E41201EA4F10104DFDC484631462A4627
:100240004346BDE8F09F40EA01039B0703D009E065
:1002500008C9121F08C0042AFAD203E011F8013BB2
:1002600000F8013B521EF9D27047D2B201E000F80B
:10027000012B491EFBD270470022F6E710B513464A
:100280000A4604461946FFF7F0FF204610BD30B578
:100290000B46014600202022012409E021FA02F544
:1002A0009D4205D303FA02F5491B04FA02F52844DE
:1002B000151EA2F10102F1DC30BD202A04DB203A38
:1002C00000FA02F1002070479140C2F1200320FAA9
:1002D00003F3194390407047202A04DB203A21FAA7
:1002E00002F00021704721FA02F3D040C2F120024F
:1002F0009140084319467047064C074D06E0E068F8
:1003000040F0010394E8070098471034AC42F6D35C
:10031000FFF750FF3CC400085CC400087CB50546EC
:1003200000F0CEF9044600F0C5F902460020CDE900
:1003300000050748074B006800EB800101EBC00196
:1003400003EB81012346C96D00F054FE7CBD000023
:1003500018000020880100200A4B30B41B6803EB12
:100360004304094B03EB84039B68DD881C689B886E
:10037000DB1DDB08203A13FB02F205FB024230BC16
:1003800000F04ABD18000020A00200200348406889
:100390008068002800D00047704700001800002047
:1003A0002DE9F0470446002799468A461546B84687
:1003B000104601E008F1010810F8011B0029F9D1ED
:1003C00000F078F9254A264E4B461168B9F1010F25
:1003D00001EB410106EB810189688988B0FBF1F0EE
:1003E00002D0022B0BD105E0A0EB0800484304EB40
:1003F000500003E0A0EB080000FB014084B29046EF
:1004000000F058F90146D8F8000000EB400006EB78
:1004100080008068808807FB101189B2814213D365
:10042000012012E051462046FFF796FFD8F8000061
:100430007F1C00EB400006EB8000BFB280686D1CA3
:100440008088204484B2DBE700202A780AB10121A9
:1004500000E000210842E5D1BDE8F0871800002047
:10046000A002002010B50A46034600F015F9C08826
:10047000BDE81040584381B203230020FFF790BF2E
:100480002DE9F05F88468346907AD17A144600EBD6
:100490000120117B527B090401EB026100EB010A90
:1004A000A07CE17C4FF0000900EB0121207D0204DB
:1004B000607D02EB00600D18A07DE17D627E00EBA7
:1004C0000120217E090401EB02614718207F617F32
:1004D00000EB012600F0EEF81A4900FB08B00968AD
:1004E00001EB810202EBC101174A02EB8101C96DE8
:1004F00001EB8008A6F12000082806D31030082858
:1005000001D2022000E00120814604EB0A02781E9D
:1005100068434FEAD60A00FB0A2600240EE04B4649
:100520002A464146304600F0B9FB00F0C3F8401BB4
:10053000411905FB1A6608EB8108641CBC42EED326
:10054000BDE8F09F18000020880100202DE9FF5F22
:10055000824603208946A0EB42080025144678E035
:100560003E4E3F4FA9EB040B30681FFA8BF100EBB6
:10057000400057F820200AEB0500039080B200F0FD
:1005800071F830681FFA8BF100EB400057F820201B
:10059000AAEB0500029080B200F064F83068A9EB85
:1005A000050B00EB40001FFA8BF157F820200AEBF7
:1005B0000400019080B200F055F830681FFA8BF10A
:1005C00000EB400057F82020AAEB0400009080B216
:1005D00000F048F8306809EB040B00EB40001FFA0C
:1005E0008BF157F82020039880B200F03BF8306878
:1005F0001FFA8BF100EB400057F82020029880B2E0
:1006000000F030F8306809EB050B00EB40001FFAF2
:100610008BF157F82020019880B200F023F8306861
:100620001FFA8BF100EB400057F82020009880B2B1
:1006300000F018F8B8F1000F04DA08EB850000F1BB
:10064000060805E0291B08EB810000F10A08641E7A
:100650006D1CA54284D9BDE8FF9F00001800002052
:10066000A002002070B514460D46064600F022F8A0
:10067000074905FB0060096801EB810202EBC1013B
:10068000044A02EB8101C96D41F8204070BD0000B1
:10069000180000208801002004480549006800EB8C
:1006A000400001EB800080687047000018000020C7
:1006B000A002002001484068806A0047180000201E
:1006C00001484068C06A00471800002070B5214CFE
:1006D0001F4800252060092060610120A0611D20C5
:1006E000E0610320206240F20D10606240F243108E
:1006F000A06240F21710E06240F24710206384F8D5
:10070000365084F8345004F1E80084F8355008215C
:100710000160C021016104218161C903416201F0CE
:100720007DFD6560A560E560256100F059F8204613
:1007300001F0E8FB0949084848600068804700F07C
:1007400005F90648083000F0E7F8002070BD000009
:1007500000680140880100204400002018000020AB
:1007600070B58EB000240E4605460094FFF7A2FF38
:10077000CDE90104FFF7A4FF0996CDE90304FF20AA
:10078000CDE905048DF830408DF831408DF83240C8
:100790004FF4C060079007200890FFF78BFF0A9086
:1007A000FFF78EFF0B902A4669460A4801F068FB66
:1007B000094905EB450001EB8002631E5360074BBE
:1007C00093604FF07F4241F82020024801F082FB05
:1007D0000EB070BD88010020A00200202000002083
:1007E00030B5434887B00021026842F08062026061
:1007F000006800F0806005903D481438026842F4BB
:1008000000020260026802F400020592026842F0EF
:1008100001020260026802F001020592026842F0E1
:1008200002020260026802F002020592026842F0CF
:1008300004020260026802F004020592026842F0BB
:1008400008020260026802F008020592026842F0A3
:1008500020020260026802F020020592026842F063
:1008600040020260006800F04000059041F6580028
:1008700000900220CDE9010103900E20049069460A
:100880001C4800F0E7FE4FF470601B4C0090694676
:10089000204600F0DFFE4FF498600090694617484C
:1008A00000F0D8FE482000906946154800F0D2FEBE
:1008B000201500906946134800F0CCFE4FF40C6000
:1008C000114D00906946284600F0C4FE03200090B8
:1008D000092004906946204600F0BCFE4FF4A05069
:1008E00000906946284600F0B5FE07B030BD000014
:1008F0004438024000000240000402400008024068
:10090000000C024000140240001802400149086037
:1009100070470000180000200449054A096801EBEF
:10092000410102EB8101886070470000180000203F
:10093000A00200200349044A096801EB410142F882
:100940002100704718000020A002002070B51B484D
:1009500019490423016000F13401022207248B604D
:10096000C1E90024C1E903424A618A611021C0E95A
:1009700003314021416101260024C0E901644FF4A4
:10098000C071C0E906149102C0E9081489008162AF
:10099000214600F05BF809490848343102F065F956
:1009A000074D08B12E7000E02C7040F26A5000F044
:1009B00009F8287870BD0000400100A078030020ED
:1009C000300000202DE9F84F1F4C00250126082794
:1009D0000095C4E90067C4E9026582464FF6FF79D5
:1009E00021464A46A1F1500002F074F9012000F0BE
:1009F000FDFC0220C4E90007C4E9026521464A461D
:100A0000A1F1500002F066F903204FF00408E56000
:100A100084E8810121464A46A1F1500002F05AF9CA
:100A20004FF40C700090C4E90260C4E900872146CD
:100A30004A46A1F1500002F04DF95146A4F1500090
:100A4000BDE8F84F02F034B9C803002030B587B0D4
:100A500005007DD04D480024016841F0010101608E
:100A600000684A4900F0010008390590086840F420
:100A700080000860086800F480000590086840F075
:100A800002000860086800F002000590086840F065
:100A900004000860086800F004000590086840F051
:100AA00008000860086800F008000590086840F039
:100AB00010000860086800F010000590086840F019
:100AC00020000860086800F020000590086840F0E9
:100AD000400008600868694600F040000590022068
:100AE000CDE9024001900C2004906020009028483D
:100AF00000F0B0FD012000906946264800F0AAFDF4
:100B00004CF2037000906946234800F0A3FD4FF6B5
:100B1000837000906946214800F09CFD4FF63F002D
:100B2000009069461E4800F095FD48F23310009091
:100B300069461C4800F08EFD1B498020C1E9014038
:100B40008000C8604000086180004861800000E0CB
:100B50001AE0C1E90604C000C1E908040320C1E9A4
:100B60000A0412480C630860296308468D6300F08C
:100B7000A7FB0D4800F0D0FB00220F21382001F028
:100B80001BFB382001F00CFB07B030BD38380240A9
:100B90000004024000080240000C02400010024025
:100BA0000014024000180240B80200201064024005
:100BB0007CB52A4C0546E068016982208847288078
:100BC000002849D0E06801AA694643698220984715
:100BD000BDF804000B21A0F5B47080B2ADF804009C
:100BE000B0FBF1F020B16188884201D9491E88B27A
:100BF000BDF8001040F6B832ADF80400914202D8BA
:100C0000A1F61E7101E0A1F6D8614942ADF80010CD
:100C100089B20F22B1FBF2F121B12288914201D9B0
:100C2000521E91B2ADF8001062688BB2934201D9A6
:100C30008A1A00E0521A93B2A268904201D9821A2D
:100C400000E0121A92B21A44052A01D9C4E901102F
:100C5000A08868802089A8807CBD00003400002026
:100C600070B50B4D0B4C012628806980616882208D
:100C70008847A0F50061113908D1EC600026216891
:100C800082208847E868C16882208847304670BD66
:100C9000340000207C000020FEE70000F8B50D467F
:100CA000154906464FF4803048600020144688609D
:100CB000FF22C860C1E90C02C1E90A030F480860BD
:100CC000084600F01BFA002815D101210A4800F05F
:100CD000C1F900280FD10120009023462A46314651
:100CE000054800F0D3FA002805D1BDE8F8400A21F4
:100CF000014800F045BAF8BD3002002000B00240C3
:100D0000F0B50468059E656C46EA034305F040456E
:100D10001D4365640368DA634268B2F5403F02D060
:100D20000068C160F0BD01F47F4201F47F0C866869
:100D300001F07F4301F47F0701F47F45CCB242EA22
:100D40000C02BEB1012E16D001F47F02D20CC1F309
:100D5000C401022E11D0032E14D0190F3A0D2D0B01
:100D600023092C0144EA022242EA01321A430068B4
:100D70008263F0BD1A432243F9E7AB0A5B0143EA01
:100D8000C22206E0DB0FEC0A640144EA822242EA56
:100D9000C3320A43EBE7000001681823CAB2103AD5
:100DA000B2FBF3F2054B6FF30901032A9B5CC365A9
:100DB00000D9091D81650846704700001CC4000861
:100DC00010B5014600208B698A6A4FF0C07453B198
:100DD000B3F5005F15D072B1012A0CD0022A0AD0F7
:100DE000032A09D104E01AB1012A06D0022A03D14C
:100DF000C96AC90100D5012010BDC96AA142FAD053
:100E000010BD002AF7D0012AF2D0022AF3D0032A1B
:100E1000F3D010BD704700002DE9F74FDFF8A4A014
:100E20000026DAF8000000EB4001274800EB8100C3
:100E300080688588C788E81D834620F00700401B2E
:100E400000F0FF093AE000BF4FEADB0102980129F8
:100E500001FB06000BD002290BD00178427809046F
:100E6000807841EA022141EA000800241FE000786E
:100E700001E0008840BA8046F7E7291B4944012079
:100E8000491E884010EA080FDAF8000000EB400124
:100E90000D4802D050F8212002E000EB81004268AA
:100EA00000980199204480B2FFF7DCFB641CAC423F
:100EB000E3D30198401C80B2761C0190BE42C3D39C
:100EC000BDE8FE8F18000020A0020020704730B55A
:100ED000D1E901231A43D1E903352B431A434B6966
:100EE0000C681A438B691A43D1E90735012C496A0A
:100EF000046807D01A432A436FF30E040A432243BF
:100F000002600AE024F4F8442B4321430B43416878
:100F100003606FF30E010A434260002030BD426956
:100F200042EA4101416100207047F8B51446054688
:100F3000D1E9000210438A686FF01F03C96803EB10
:100F4000421242EA412108430090286100F06EFC01
:100F5000064609E0601C07D024B100F067FC801B46
:100F6000A04201D90320F8BDA8698006F2D4002070
:100F7000F8BD0000F0B56FF00F05D1E9003405EBC6
:100F800004145B1E23432E018C682F0306EB0424FC
:100F900023434FEA054C0C8A8E8ACD68097E4FF0B8
:100FA0007F4E07EB04440CEB06560EEB0161012A61
:100FB0000CD082683F1107EB05352B4323433343A5
:100FC00002F070420B43134383600FE08768084AC6
:100FD00017402A03A2F580523243C5683A4323439F
:100FE00005F070450B432B438260C3600020F0BDC9
:100FF000FF0F0FFF2DE9F8430E460746DDE90818FD
:10100000124815464FF4403242600022C0E90221E6
:101010000F491C46016000F071F8002814D13946D0
:101020000A4800F017F800280ED12B4632464146F8
:101030000648009400F02AF9002805D1BDE8F843DD
:101040000A21024800F09CB8BDE8F8833002002075
:1010500000B0024070B500EB011290F83830183241
:10106000012B20D0012580F83850022380F8393038
:1010700054680A2C19D0092C17D01389167B1B042D
:1010800043EA066323431C4CB1B10168CE69264094
:101090001E43CE6103681168196151680A291ED088
:1010A00009291CD020E0022070BDD368168903F006
:1010B0007F4343EA0643E5E70668716A2140194326
:1010C000716203681168996151680A2901D0092980
:1010D0000AD1D168026821F07F41916204E0D168B1
:1010E000026821F07F41116280F83950002180F8B8
:1010F0003810084670BD0000F0FFFC0070B5040019
:1011000004D094F83900002510B106E0012070BD2C
:1011100084F83850204600F01FF8022084F8390087
:1011200020680168626821F4403111430160206841
:10113000416BA26821F00701114341632068016CF3
:10114000E2686FF30D0111430164E563012084F847
:101150003900002070BD000008B5006806498842CB
:1011600008D10648016841F400010160006800F4FC
:101170000000009008BD000000B00240303802407E
:101180002DE9F84300260446009600680D460068E5
:101190004FF00407C0074FF0030825D000F046FBCE
:1011A00081461DE04068009010F0210F0FD000989C
:1011B000800603D5E06B40F00200E0630098C007B2
:1011C00003D0E06B40F00100E063212032E0681CB6
:1011D00006D0C5B300F02AFBA0EB0900A8423CD81A
:1011E000206841688907DDD52068C169890602D475
:1011F000406A800640D500F019FB814638E040681F
:10120000009010F0290F1FD00098000703D5E06B65
:1012100040F00400E0630098800603D5E06B40F0E6
:101220000200E0630098C00703D0E06B40F00100CB
:10123000E06329202168886084F8397084F8386078
:101240000120BDE8F88308E0681C11D02DB100F042
:10125000EDFAA0EB0900A8420AD954F83C0F40F07F
:10126000200044F8040984F8018026700320E8E790
:1012700020684168C906C2D5216812208860012013
:1012800084F8390084F838600020DAE738B504467D
:10129000049894F83850012D10D0012584F8385066
:1012A000022584F8395000902046FFF729FD206878
:1012B000016841F001010160002038BD022038BD05
:1012C00070B5040025D094F83500022820D020689D
:1012D000016821F001010160206800250560206897
:1012E0004560206885602068C560206805612168C8
:1012F000212048612046FFF74FFD94F85C203F21F4
:1013000091408160656584F8355084F83450002040
:1013100070BD012070BD00002DE9F041044600F0D1
:1013200085FA06465CB1002584F83450022084F822
:1013300035002068016821F0010101600DE0012005
:10134000BDE8F08100F072FA801B052805D9202045
:101350006065032084F83500F2E720680068C00764
:10136000F0D12268116820480140D4E901031843F4
:10137000D4E903363343184363691843A369184318
:10138000E3691843236A18430843616A042903D1B7
:10139000D4E90B1319430843106020684069666A5A
:1013A00020F0070130460E43012704280CD1A06A23
:1013B0000643E06A40B12046FFF702FD20B140201D
:1013C000606584F83570BAE7206846612046FFF70B
:1013D000E3FC94F85C203F2191408160656584F8CE
:1013E00035700020ACE700003F8010F070B5044677
:1013F00000F01CFA0546601C02D004480078044442
:1014000000F014FA401BA042FAD370BDCC000020BB
:101410002DE9F0412B4886B0016800294FD14FF0EB
:101420000108C0F8008028480024016841F001014B
:1014300001600068022500F0010005904FF63F00B2
:10144000CDE9000502AA03260C2782E8D0006946F0
:101450001E4800F0FFF802AA694682E8D000CDE9F4
:1014600000851B4800F0F6F848F23310CDE900057E
:1014700002AA694682E8D000164800F0EBF84FF661
:101480008370CDE9000502AA694682E8D0001248BF
:1014900000F0E0F84CF20370CDE9000502AA6946BD
:1014A00082E8D0000D4800F0D5F86020CDE90005B5
:1014B00002AA694682E8D000094800F0CBF806B0DD
:1014C000BDE8F081C400002038380240001402401A
:1014D000000802400018024000100240000C0240C8
:1014E000000402402DE9F04FDFF838B100224FF040
:1014F00001094FF00F0A00BF09FA02F401EA0403E0
:10150000A3427DD1066857000325BD40AE43066067
:10151000D60800EB8606D6F820C057074FEAD768F2
:101520000AFA08F72CEA070CC6F820C08668AE4312
:1015300086604668A6434660C468AC43C46022F037
:1015400003055D44D5F808789407260F0AFA06F4D7
:10155000DFF8D4C02740604502D14FF0000C40E0D6
:10156000DFF8C8C0604502D14FF0010C39E0DFF868
:10157000C0C0604502D14FF0020C32E0DFF8B4C0C9
:10158000604502D14FF0030C2BE0DFF8ACC06045A2
:1015900002D14FF0040C24E0DFF8A0C0604502D176
:1015A0004FF0050C1DE0DFF898C0604502D14FF008
:1015B000060C16E0DFF88CC0604502D14FF0070C36
:1015C0000FE0DFF884C0604502D14FF0080C08E05E
:1015D000DFF878C0604502D14FF0090C01E04FF010
:1015E0000A0C0CFA06FCBC4516D1D5F80868A643CF
:1015F000C5F80868164C25689D432560241D00E049
:101600000AE025689D432560241D25689D432560CB
:10161000241D25689D432560521C102AFFF46CAFE1
:10162000BDE8F08F0030014000000240000402409D
:1016300000080240000C024000100240001402406A
:1016400000180240001C024000200240002402401A
:10165000003C01402DE9F84FDFF890B100224FF037
:1016600001084FF0030A4FF00F090BF1040E00BF01
:101670000B6808FA02F42340A3426ED14D68022D94
:1016800001D0122D0ED1D50800EB850CDCF82050CE
:101690005607F70E09FA07F6B5430E69BE402E430A
:1016A000CCF82060066855000F790AFA05FC07F0AF
:1016B000030726EA0C06AF40374307604E68012E49
:1016C00005D0022E03D0112E01D0122E0ED1876824
:1016D000CE6827EA0C07AE403E4386604668A643C4
:1016E0000C79C4F30014944034434460C4688E6899
:1016F00024EA0C04AE402643C6604C68E4006FD573
:101700003B4C256845F480452560246822F003059C
:1017100004F480440094374C2E19D6F808489507F5
:101720002F0F09FA07F5AC43334DA84201D100252C
:101730002EE0324DA84201D1012529E0304DA842CA
:1017400001D1022524E02F4DA84201D103251FE03D
:101750002D4DA84202D104251AE041E02B4DA842AC
:1017600001D1052514E02A4DA84201D106250FE03C
:10177000284DA84201D107250AE0274DA84201D1F2
:10178000082505E0254DA84201D1092500E00A25DC
:10179000BD402543C6F80858DBF800405D464E685A
:1017A0009C43F60300D51C432C60DEF800407546D0
:1017B0004E689C43B60300D51C432C600B4D083586
:1017C0002C684E689C43F60200D51C432C60074DE4
:1017D0000C352C684E689C43B60200D51C432C6027
:1017E000521C102AFFF444AFBDE8F88F003C0140C2
:1017F0004438024000300140000002400004024032
:1018000000080240000C0240001002400014024098
:1018100000180240001C0240002002400024024048
:101820000AB1816170470904FBE700000148806844
:1018300070470000CC00002090F83D20202A01D005
:1018400002207047242280F83D200268136823F0AC
:10185000010313600268536A23F0100353620268A5
:10186000536A0B43536201680A6842F001020A603E
:10187000202180F83D100020704790F83D20202A5C
:1018800001D002207047242280F83D2002681368AE
:1018900023F00103136003685A6A22F00F020A431F
:1018A00091B2596201680A6842F001020A6020217F
:1018B00080F83D100020704710B5040013D024209C
:1018C00084F83D002068016821F001010160204694
:1018D00000F02EFA0020206484F83D0044F8300F18
:1018E000A073207310BD012010BD90F83D0070471B
:1018F00070B5040004D094F83D00002510B106E056
:10190000012070BD84F83C50204600F02FFA2420BE
:1019100084F83D002068016821F00101016000F0B9
:101920002FFE33492268B0FBF1F15160314A636800
:10193000934206D94FF4967359434FF47A73B1FB2F
:10194000F3F12368491C1962616891420BD8490080
:10195000B0FBF1F2C2F30B02042A01D2042019E019
:10196000B0FBF1F016E0A3689BB301EBC10202EB00
:101970000112B0FBF2F242F48042120530D04BB3B8
:1019800001EBC10202EB0111B0FBF1F040F4804029
:1019900040F400402168C861D4E907010843216888
:1019A0000860D4E90310084321688860D4E9050180
:1019B00008432168C8602068016841F001010160A6
:1019C0002564202084F83D00256384F83E500020E3
:1019D00070BD00E006E001EB4102B0FBF2F2CCE7A3
:1019E0000120D7E701EB4101B0FBF1F0D0E70000A7
:1019F00040420F00A08601002DE9FF4F83B09A46B8
:101A0000DDE9118793460446DDF84090FFF70EFFAD
:101A1000054694F83D00202874D11923012272490B
:101A20002046009501F073FD0028F5D194F83C00A4
:101A3000012867D0012084F83C0020680168C907AC
:101A400003D1016841F0010101602068016821F4BF
:101A500000610160222084F83D00402084F83E00AF
:101A600000262664C4F82490A4F82A805F48E06227
:101A7000608D2085CDE9007553465A46204604996D
:101A800001F055FC28B1206C84F83C60042843D058
:101A900076E0208DC8B1012820D00228206823D00C
:101AA000416980690090208D03286BD801282AD0D5
:101AB0004F4902283B464FF0000200955BD0884614
:101AC000204601F024FDE8BB40E0206841698169BF
:101AD0000091016841F40071016076E020680168BE
:101AE00021F480610160F0E7016821F48061016008
:101AF0002068016841F400610160206841698069E3
:101B0000009062E06EE02A463946204601F074FDFE
:101B100030B1206C202833D0012007B0BDE8F08F11
:101B2000206847E02068016841F400710160206886
:101B30000169606A421C62620170208D401E20852E
:101B4000608D00E01CE0401E6085E9E720680168C8
:101B500021F48061016020680169606A421C626250
:101B60000170208D401E2085608D401E60853B46A3
:101B7000002241460095204601F0C9FC0028D1D042
:101B80000320CAE72A463946204601F035FD0028E1
:101B9000BFD120680169606A421C62620170208DB9
:101BA000401E2085608D401E608520684169C943C4
:101BB00049070AD40169606A421C62620170208D83
:101BC000401E2085608D401E6085208D00287FF49A
:101BD0006AAF202084F83D0084F83E6084F83C60C1
:101BE00000209AE7022098E7020010000000FFFFA3
:101BF000040001002DE9FF4F83B09A46DDE911870B
:101C000093460446DDF84090FFF710FE064694F830
:101C10003D0020287DD1192301224349204600960A
:101C200001F075FC00287CD194F83C00012878D0A4
:101C3000012084F83C0020680168C90703D10168CD
:101C400041F0010101602068016821F40061016038
:101C5000212084F83D00402084F83E0000252564C2
:101C6000C4F82490A4F82A803048E062608D208572
:101C7000CDE9007653465A462046049901F0D0FB40
:101C800080B3206C84F83C50042848D008E03246E9
:101C90003946204601F0E1FC30B1206C042839D0EF
:101CA000032007B0BDE8F08F606A411C61622168C3
:101CB00000780861208D401E80B22085618D491E0C
:101CC000618521684A69D24352070BD468B1606AC2
:101CD000421C626200780861208D401E2085608D64
:101CE000401E6085208D0028D1D1324639462046DD
:101CF00001F0E6FB0028D0D154F83D0B016841F417
:101D000000710160202004F81E09E5776577002046
:101D1000C7E706E02068016841F400710160012016
:101D2000BFE70220BDE70000020010000000FFFF37
:101D300010B50068094988420FD10948016821F4AB
:101D40000001016041150748FFF7CCFBBDE81040DA
:101D50004FF480710448FFF7C5BB10BD005C004024
:101D6000403802400008024000000240F0B587B051
:101D7000044614216846FEF77FFA1C492068884211
:101D800031D11B480024016841F004010160016861
:101D900001F004010591016841F001010160006852
:101DA000122500F0010005904FF4007001268DE827
:101DB00061000427CDE9034769460E48FFF74AFC56
:101DC00030028DE86100CDE9034769460A48FFF714
:101DD00041FC07481030016841F4000101600068CF
:101DE00000F40000059007B0F0BD0000005C00406A
:101DF000303802400008024000000240024881687A
:101E00000278114481607047CC0000200B4810B567
:101E1000016841F400710160016841F48061016072
:101E2000016841F480710160032000F0E5F90020B1
:101E300000F006F800F09AF9002010BD003C0240C6
:101E400070B50D4D04464FF47A712878B1FBF0F06F
:101E50000A490968B1FBF0F001F040FA48B9102CCA
:101E600007D200222146501E00F0A6F900206C6027
:101E700070BD012070BD0000CC000020D800002003
:101E80002DE9F041044690F8A00016460F460128BF
:101E90001DD0012584F8A050022084F8A10006EB93
:101EA000860000EBC60004EB800034223830FEF7D9
:101EB000CAF932463946204601F0BAFD206845622B
:101EC00084F8A150002084F8A000BDE8F081022031
:101ED000FBE7000090F8A01001290ED0012100F8C6
:101EE000A01F02224270064A136843F48033136035
:101EF00041700021017008467047022070470000C1
:101F00001868014070B5040004D094F8A1000025C1
:101F100010B106E0012070BD84F8A050204600F00A
:101F20006BF8022084F8A1002068816921F07041DB
:101F30008161D4E901010843D4E903121143084344
:101F400021688A691043886121688A6829480240AB
:101F50008A60A18A0A0421688B68A6693343134307
:101F60008B602168CA680240CA60A18B0B0421689B
:101F7000CA68266A32431A43CA6021680A69024065
:101F80000A61A18C22680B041169A66A31431943C6
:101F9000116121684A6902404A61A08D01042068EC
:101FA0004269236B1A430A43426194F83500216861
:101FB000020294F83600CB6A03F07F43CB622168BB
:101FC000CB6A94F8346042EA004033430343CB6267
:101FD0002068416B41F0060141632068816941F04E
:101FE00001018161C4F8A450012084F8A1000020FF
:101FF00070BD000000F800F02DE9F04186B0044605
:1020000014216846FEF738F95049206888427CD18F
:102010004F480024016841F080610160006800F0D1
:10202000806005904A481438016841F02001016041
:10203000016801F020010591016841F00101016092
:10204000016801F001010591016841F002010160A0
:10205000016801F002010591016841F04001016051
:10206000016801F040010591016841F0040101603F
:10207000016801F004010591016841F00801016067
:102080000068022500F0080005904FF48060009081
:10209000CDE901540E26CDE9034669462D48FFF7E8
:1020A000D9FA41F658000090CDE90154CDE9034634
:1020B00069462948FFF7CEFA03200090CDE9015484
:1020C0000927DFF89880CDE9034769464046FFF7C6
:1020D000C1FA4FF470600090CDE90154CDE9034698
:1020E00069464046FFF7B6FA4FF40C600090CDE920
:1020F0000154DFF86C80CDE9034669464046FFF79E
:10210000A9FA4FF49860009000E01CE0CDE901547A
:10211000CDE9034669461348FFF79CFA4820009032
:10212000CDE90154CDE9034669460F48FFF792FA1D
:102130004FF4A0500090CDE90154CDE90347694622
:102140004046FFF787FA06B0BDE8F081006801401D
:1021500044380240001402400000024000040240E3
:102160000018024000080240000C02400B4882B0F8
:10217000016841F480410160006800F480400090F3
:102180000648001F016841F080510160006800F0BE
:1021900080500090072002B000F02EB84438024072
:1021A00000F01F02012191404009800000F1E02071
:1021B000C0F8001170470000F0B40E4B1B680C46CD
:1021C000C3F30223C3F10705042D00D90425191D0B
:1021D000072901D2002300E0DB1E012606FA05F1E3
:1021E000491E214099409E40761E16403143F0BC66
:1021F00001F0FCBE0CED00E0064900F007020868A3
:102200004FF6FF03184040EA0220034A10430860DB
:10221000704700000CED00E00000FA052DE9F84FD2
:1022200004460068DFF804A2814F824DC1074FF0D9
:1022300001084FF0000601D180073CD5CAF868605C
:10224000FFF7F4FA814605E0FFF7F0FAA0EB09008A
:10225000022878D828680001F6D42078C10776488B
:1022600005D06168227A890141EA02710160217812
:10227000890711D501686268237B9201C1F302715D
:1022800042EA036242EA017101603868E16920F0C4
:102290001F00491E08433860CAF86880FFF7C6FA75
:1022A000814605E0FFF7C2FAA0EB090002284AD8F0
:1022B00028680001F6D52068410701D400074CD5F5
:1022C000CAF87060FFF7B2FA814605E0FFF7AEFA90
:1022D000A0EB0900022836D82868C0438000F5D555
:1022E00020784107554814D501682269237D920161
:1022F000C1F3027142EA036242EA01710160396886
:10230000226A6FF0FF0321F4F85103EB022211431C
:1023100039602178090710D501682269C1F303618A
:10232000920142EA0161227E41EA0271016038684D
:10233000616A20F4403008433860CAF87080FFF7C3
:1023400075FA074605E048E0FFF770FAC01B02285F
:1023500043D82868C0438000F6D42078800653D53F
:1023600034484030016841F0805101600068344DCC
:1023700000F080500090286840F480702860FFF7DB
:1023800055FA074605E000BFFFF750FAC01B0228C8
:1023900023D82868C005F7D5274D143D286810F4C8
:1023A000407020D0218D01F4407181421BD02868FB
:1023B000244920F44070C1F800800E60286028682D
:1023C000C00710D0FFF732FA064641F2883707E01F
:1023D000FFF72CFA801BB84202D90320BDE8F88F22
:1023E00028688007F4D5A16A1248C1F30122083099
:1023F000032A13D0016821F4F81101602868218DA7
:10240000C1F30B01084328602078C00604D50E49AB
:1024100094F82C00C1F8E0010020DFE702680B4BC4
:1024200022F4F81219400A430260E7E7000047422D
:102430008C3802400038024084380240883802401C
:1024400000700040400E474200104742FFFCFF0F63
:102450002DE9F0470E46050065D0DFF81481D8F865
:102460000000F7B200F00F00B04207D288F8007009
:10247000D8F8000000F00F00B04254D128683D4C5D
:10248000810712D5400703D5206840F4E050206052
:102490002878000703D5206840F460402060206859
:1024A000A96820F0F000084320602878C0072DD0EC
:1024B000304968680839012812D0022813D003284F
:1024C00011D00968890700292DDA216821F003015C
:1024D00001432160FFF7AAF9814641F2883A0EE0F4
:1024E00009688903EFE709688901ECE7FFF79EF9BE
:1024F000A0EB0901514502D90320BDE8F08720680F
:10250000696800F00C00B0EB810FEFD1D8F8001033
:10251000404601F00F01B14207D90770006800F092
:102520000F00B04201D00120E7E72878400705D529
:102530002068E96820F4E05008432060287800070C
:1025400006D52068296920F4604040EAC100206077
:1025500000F026F82168084AC1F30311515CC84015
:10256000064908600020FFF76BFC0020C5E700006B
:10257000003C02400838024024C40008D800002073
:102580000448054900680968044AC1F38221515C86
:10259000C8407047D80000200838024034C4000802
:1025A000154810B5006810F00C02144813D0411003
:1025B000042A0FD0082A0ED10F4C241F226823684A
:1025C00002F03F025B0207D52068C0F38810A0FB31
:1025D000010106E0084610BD2168C1F38811A1FB86
:1025E00000010023FDF7FEFD2168C1F30141491CF4
:1025F0004900B0FBF1F010BD083802400024F4009F
:102600002DE9F84F050076D02878DFF8F8B2BE4CF7
:10261000C00749D0DBF800105846C1F381010129F9
:1026200008D00068C0F3810002280AD1201D00688C
:10263000400206D52068800336D568680028E2D0BD
:1026400032E06868B0F5803F10D0B0F5A02F206868
:1026500010D020F480302060206820F4802020609A
:102660006868A0B1FFF7E2F806460CE0206840F485
:102670008030F4E740F480202060F7E7FFF7D6F8D9
:10268000801B642873D820688003F7D50CE0FFF71F
:10269000CDF8064605E000BFFFF7C8F8801B6428A8
:1026A000F0D820688003F7D42878DFF860828007AC
:1026B0004FF000093ED5DBF80010584611F00C0F22
:1026C00009D00068C0F3810002280BD18D48001F9B
:1026D0000068400206D42068800715D5E868012804
:1026E00009D111E0E868B8B10120C8F80000FFF78F
:1026F0009DF8064605E002E1FFF798F8801B0228E6
:10270000C0D820688007F7D52068296920F0F80034
:1027100040EAC10020600DE0C8F80090FFF786F89D
:10272000064604E0FFF782F8801B02281FD82068C5
:102730008007F7D42878000722D5724E744869695B
:102740006C3671B101210160FFF770F8074604E0B3
:10275000FFF76CF8C01B022809D830688007F7D54E
:102760000EE0C0F80090FFF761F8074605E083E04F
:10277000FFF75CF8C01B02287ED830688007F7D4CA
:102780002878400768D5DFF87CA100270AF1380ACD
:10279000DAF80000C0000BD4DAF8001041F08051E4
:1027A000CAF80010DAF80000012700F0805000900D
:1027B000584E3068C00510D4306840F480703060E6
:1027C000FFF734F8009005E0FFF730F80099401A61
:1027D000022851D83068C005F6D54A4EA868683638
:1027E00001280FD00528306810D020F0010030609B
:1027F000306820F004003060A868B8B1FFF716F820
:1028000000900FE0306840F00100F4E740F0040071
:102810003060F7E7FFF70AF80099411A41F2883073
:10282000814264D830688007F4D50EE0FEF7FEFFE1
:10283000009007E0FEF7FAFF0099411A41F2883054
:10284000814254D830688007F4D42FB1DAF80010F0
:1028500021F08051CAF80010A869C0B3DBF800105D
:10286000C1F3810102294AD00228484607D0C8F89E
:102870006000FEF7DBFF00E039E005463AE047463E
:10288000C8F86000FEF7D2FF064604E0FEF7CEFF70
:10289000801B02282BD820688001F7D4D5E90701D6
:1028A0000843A96A1C4A490802EB01416A6A41EAE5
:1028B0008211084395F82C1040EA01611148001F6D
:1028C000016001203866FEF7B1FF054605E014E01F
:1028D000FEF7ACFF401B022809D820688001F7D51D
:1028E0000BE000BFFEF7A2FF401B022802D9032025
:1028F000BDE8F88F20688001F4D40020F8E70120BB
:10290000F6E7000008380240003802400000474265
:10291000800E4742007000400000FFFF10B50068C5
:102920000B4641680D480140080CD870C1F30424DF
:102930005C7001F03F049C70C1F34231197052B9D0
:1029400001F065FBD870587801F061FB58709878F9
:1029500001F05DFB9870002010BD00003FFFFF00FC
:1029600010B50B460168896A596001680969C1F3AD
:102970000E019960006801680E480140C1F30540EE
:102980001870C1F306245C7001F07F049C70402431
:1029900004EA1141D97052B901F039FB1870587826
:1029A00001F035FB5870987801F031FB98700020E9
:1029B00010BD00007F7F7F0070B5040002D0607FF3
:1029C00010B106E0012070BD00202077204600F005
:1029D00049F8022060772168CA20486221685320A4
:1029E0004862204601F028FBFF25042618BB20681A
:1029F00081681B4A114081602168886862681043C1
:102A0000D4E904231A43104388602168E068086110
:102A100020680169228941EA024101612068C16898
:102A200021F08001C16020688068800607D42046BC
:102A300000F000F918B1206845626677C2E72068A7
:102A4000016C21F4802101642068016CA2691143AA
:102A500001642068456201206077002070BD00009D
:102A6000BFFF8FFF00680349884202D1024901205D
:102A700008607047002800403C0E47422DE9F047AF
:102A80000446007F0B4601281FD04FF0010984F84F
:102A90001C9002206077DAB19878D97840EA014535
:102AA00058781978000240EA413005432168CA206D
:102AB0004862216853204862204601F0BDFA002692
:102AC000FF274FF0040860BB1AE00220BDE8F08742
:102AD0005878C10603D500F0EF000A305870D87856
:102AE00001F09EFA0204587801F09AFA42EA0022B4
:102AF000987801F095FA0243187842EA4035D5E714
:102B00000F480540206845602068C16821F08001B9
:102B1000C1602068806880060AD4204600F08AF8E8
:102B200030B12068476284F81D8026770120CDE708
:102B30002068476284F81D9026770020C6E70000D1
:102B40003FFFFF002DE9F0470446007F0D460128B6
:102B500011D04FF0010A84F81CA002206077206891
:102B6000002680684FEA406042B100281ADA2878CF
:102B700001F04DFA17E00220BDE8F087002800DBE5
:102B8000EE70287801F04CFA0204687801F048FAF7
:102B900042EA0022A87801F043FA0243E87842EAC8
:102BA00000470AE0EE70A878297840EA0147687883
:102BB000E978000240EA014007432168CA204862E0
:102BC000216853204862204601F036FA4FF0FF0892
:102BD0004FF00409E0B916480740206807602068F4
:102BE000816821F480218160D5E9030108432168CF
:102BF0008A68104388602068C16821F08001C16044
:102C00002068806880060BD4204600F013F838B1A5
:102C10002168C1F8248084F81D9026770120ABE755
:102C20002168C1F8248084F81DA026770020A3E73E
:102C30007F7F7F0070B504460068C16821F0A00165
:102C4000C160FEF7F3FD05464FF47A7607E000BF5A
:102C5000FEF7ECFD401BB04201D9032070BD206897
:102C6000C0688006F4D5002070BD70B50D46040024
:102C700003D094F82C0010B107E0012070BD0020B3
:102C800084F82D00204600F011F8022084F82C0072
:102C9000211D2068FEF71BF9D4E900022946FEF742
:102CA00069F9012084F82C00002070BDFEF7B0BB4C
:102CB00010B5044690F82C00022809D0022084F8B0
:102CC0002C002068FEF72BF9012084F82C0000204E
:102CD00010BD000070B5044690F82C000D46022887
:102CE0000DD0022084F82C002068FEF71EF9286819
:102CF000022805D05FF0010084F82C00002070BD90
:102D00000520F9E710B5040011D0022084F8510025
:102D10002068016821F040010160204600F04CF875
:102D20000020606584F8510084F8500010BD012037
:102D300010BD90F85100704770B5040005D0002513
:102D4000A56294F8510010B106E0012070BD84F82E
:102D50005050204600F046F8022084F851002068C8
:102D6000016821F040010160D4E901010843D4E980
:102D700003121143084361690843218B01F4007178
:102D80000843E1690843216A0843A16A08432168AE
:102D90000860A069042101EA1040616A08432168C3
:102DA00048602068C16921F40061C1616565012046
:102DB00084F85100002070BD00680749884209D19D
:102DC0000648016821F4801101604FF460710448E5
:102DD000FEF788BB704700000050014044380240B5
:102DE0000014024010B586B0044614216846FDF771
:102DF00043FA13492068884220D112480021026812
:102E000042F480120260006800F4801005900D48C2
:102E10001438026842F020020260006800F02000CE
:102E200005904FF4607000900220CDE9010105206B
:102E3000CDE9031069460448FEF70CFC06B010BD4E
:102E40000050014044380240001402402DE9F84F80
:102E5000044640680026984617460D464FF0040980
:102E6000B0F5827F01D1A06890B194F8500001289C
:102E700019D04FF0010B84F850B0FEF7D7FC00904A
:102E800094F851004FF0000A01280ED002267FE08E
:102E900084F8519013460A462046CDF8008000F091
:102EA00031F9BDE8F88F0220FBE7002D6FD0002F2D
:102EB0006DD084F85190C4F854A0A563A787E78724
:102EC000C4F830A0A4F834A0A4F836A0C4F840A0F8
:102ED000C4F844A0A0684FF40047B84204D1206869
:102EE000016821F48041016020680168490603D42B
:102EF000016841F040010160E068B8B133E020684A
:102F00008168C90706D0007B05F8010BE08F401EE1
:102F1000E0870BE0B8F1000F23D0B8F1FF3F05D0F8
:102F2000FEF784FC0099411A41451AD2E08F00282F
:102F3000E5D11BE020688168C90706D0C06825F884
:102F4000020BE08F401EE0870DE0B8F1000F08D0C3
:102F5000B8F1FF3F07D0FEF769FC0099411A4145DF
:102F600001D3032614E0E08F0028E3D16068B0F5B8
:102F7000827F0AD1A068B84202D0B0F5806F04D138
:102F80002068016821F040010160606D00B10126F8
:102F900084F851B084F850A0304682E72DE9F84F0C
:102FA000044690F850000026994617460D46012821
:102FB0000DD04FF0010B84F850B0FEF737FC80467F
:102FC00094F85100B246012804D0022694E0022071
:102FD000BDE8F88F002D7BD0002F79D0032084F836
:102FE0005100C4F854A02563A786E786C4F838A02A
:102FF000A4F83CA0A4F83EA0C4F844A0C4F840A0A3
:10300000A068B0F5004F04D12068016841F4804108
:10301000016020680168490603D4016841F040015D
:103020000160E068B0F5006F606804D030B3E08EF6
:10303000012823D03EE010B1E08E01281AD135F8E6
:10304000021B206805E020688168890706D535F8ED
:10305000021BC160E08E401EE0860BE0B9F1000F5C
:1030600034D0B9F1FF3F05D0FEF7E0FBA0EB08013B
:1030700049452BD2E08E0028E5D11EE0216815F8E5
:10308000010B087306E020688168890706D515F8EA
:10309000011B0173E08E401EE0860BE0B9F1000FCA
:1030A00014D0B9F1FF3F05D0FEF7C0FBA0EB08013B
:1030B00049450BD2E08E0028E5D14B460122022182
:1030C0002046CDF8008000F0E4FF10B1032613E0A5
:1030D00011E042464946204600F0CBFF18B10126D8
:1030E0002020606508E0A06818B92068C168806881
:1030F0000090606D00B1012684F851B084F850A0B2
:10310000304665E72DE9F84F044690F85000002658
:103110000A9F9A4693460D464FF0010801280ED0AB
:10312000012084F85000FEF781FB814694F851009D
:10313000616801280CD0B1F5827F07D102E002203E
:10314000BDE8F88FA16809B9042801D00226BDE0C6
:1031500055B1BBF1000F07D0BAF1000F04D094F8BD
:103160005100012802D004E00126AFE0052084F8D8
:10317000510000206065C4F838B0A4F83EA0A4F85F
:103180003CA02563A4F836A0A4F834A020646064B1
:1031900020680168490603D4016841F040010160DC
:1031A000E068B0F5006F606804D0E8B3E08E0128F5
:1031B0003BD06AE010B1E08E01282ED1216835F8AD
:1031C000020BC860E08E401EE08626E0B8F1000FDA
:1031D0000DD0E08E58B120688168890707D535F891
:1031E000021BC160E08E401EE0864FF00008E08FB9
:1031F00058B120688168C90707D0C0682BF8020B56
:10320000E08F401EE0874FF00108781C05D0FEF7E4
:103210000DFBA0EB0900B84246D2E08E0028D5D1C4
:10322000E08F0028D2D136E0FFE7216815F8010BC6
:103230000873E08E401EE08627E000BFB8F1000F63
:103240000DD0E08E58B120688168890707D515F840
:10325000011B0173E08E401EE0864FF00008E08FF6
:1032600058B120688168C90707D0C0680BF8010B06
:10327000E08F401EE0874FF00108781C05D0FEF774
:10328000D5FAA0EB0900B8420ED2E08E0028D5D1C5
:10329000E08F0028D2D13B46012202212046CDF802
:1032A000009000F0F6FE08B103260FE04A463946CA
:1032B000204600F0DEFE18B101262020606505E002
:1032C000A06818B92068C16880680090012084F85F
:1032D0005100002084F85000304631E710B5401E00
:1032E000B0F1807F01D3012010BD4FF0E024606178
:1032F0000F21601700F07AFE0020A06107202061F6
:10330000002010BDFEE701684A69D24352050CD483
:103310006FF480624A6104210164002140F8301F8B
:1033200020224273017301207047002070472DE96D
:10333000F84F0446006889460B9D01689846174679
:1033400041F4806101602068016841F4807101608E
:1033500000954FF0011A0022514620460A9B00F0CA
:10336000D6F8F0BB216809F0FE0008610AF1010BF4
:103370002B46594620460A9A00F0FAF818B1206CFC
:10338000042812D03AE020684169806900902A46FA
:1033900020460A9900F061F950B1206C04282DD123
:1033A0002068016841F4007101600120BDE8F88FD8
:1033B000FEB2B8F1010F09D02168380A08612A4627
:1033C00020460A9900F049F90028E6D120680661F4
:1033D0002A4620460A9900F040F90028DDD12068ED
:1033E00000E00BE0016841F480710160009500226B
:1033F000514620460A9B00F08AF808B10320D5E721
:10340000216809F0FF0040F0010008612B46594691
:1034100020460A9A00F0ACF80028B0D1C6E70000B8
:103420002DE9F843044600680D46DDE90897016878
:103430009846164641F4807101604B4600224FF0D9
:1034400001112046009700F062F8E8B9216805F004
:10345000FE0008613B464A461849204600F088F8BD
:1034600028B1206C04280FD10120BDE8F883206822
:103470004169806900903A464946204600F0EDF8DF
:1034800020B1206C042813D00320EEE7F5B2B8F188
:10349000010F09D02168300A08613A4649462046A2
:1034A00000F0DBF80028ECD1206805610020DCE7A3
:1034B0002068016841F400710160D5E70200010055
:1034C00070B516460D4604461AE02046FFF71BFF6E
:1034D00008B1012070BD681C12D025B1FEF7A6F915
:1034E000801BA8420CD954F8400F40F0200044F84B
:1034F000100900202060202161732073032070BD1B
:1035000020684069C0434007DFD4002070BD2DE92A
:10351000F0471E4690460D460446C1F30747DDF8C6
:10352000209012E0701C10D02EB1FEF77FF9A0EBB6
:103530000900B04209D9002044F8300F20216173FE
:10354000A07320730320BDE8F0872068012F0AD004
:10355000806925EA00000004000C06D000214145E6
:10356000E0D00020EFE74069F3E70121F7E7000032
:103570002DE9F0479A4691460D46044600264FF045
:103580002008C1F307472AE020684069C04340058E
:1035900012D42068016841F40071016021686FF461
:1035A0008060486104202064266384F83D8084F8AC
:1035B0003C600120BDE8F087B9F1FF3F0FD0B9F1C1
:1035C000000F05D0FEF732F9A0EB0A01494506D9F4
:1035D00044F8306F84F80D8026730320EAE72068F2
:1035E000012F07D0D0F8180025EA00000004000CD5
:1035F000E0D0C9E74069F7E72DE9F04100259046A2
:103600000E460446202721E04069C043C0060CD482
:1036100021686FF0100048612564256384F83D70CF
:1036200084F83C500120BDE8F0812EB1FEF7FEF891
:10363000A0EB0800B04209D954F8400F40F0200038
:1036400044F80409677025700320ECE7206841699D
:10365000C9434906D8D40020E5E770B516460D46A3
:1036600004461AE02046FFF74EFE08B1012070BD67
:10367000681C12D025B1FEF7D9F8801BA8420CD9DE
:1036800054F8400F40F0200044F81009002020605A
:10369000202161732073032070BD20684069C043FE
:1036A0000006DFD4002070BD10B50348FEF704F912
:1036B000BDE8104000F002B8DC00002010B50E4854
:1036C000FEF713F9002815D10B480C494FF480423E
:1036D00001600B49416000218160C0E90312416132
:1036E0008161C161016200F00DF8BDE8104002483F
:1036F000FEF7FEB810BD0000DC000020005C0040BA
:10370000A086010000B50068284987B088424AD1E8
:1037100027480021026842F004020260026802F0B9
:1037200004020592026842F001020260006800F0A3
:10373000010005904FF4807000901220CDE9010146
:10374000022003900420049069461A48FDF782FF86
:103750004FF40070009069461748FDF77BFF14484E
:103760001030016841F400010160006800F40000BD
:1037700005900F481038016841F4000101600168AC
:1037800021F40001016000220F214820FEF714FD02
:103790004820FEF705FD00220F214920FEF70CFD11
:1037A0004920FEF7FDFC07B000BD0000005C0040B2
:1037B000303802400000024000080240FDF716BE0B
:1037C000104800B5026887B0002142F00102026093
:1037D000006800F0010005904FF4004000900120C7
:1037E000CDE902010848019069460848FDF732FF1B
:1037F00000220F212820FEF7DFFC2820FEF7D0FC56
:1038000007B000BD30380240000021100000024027
:10381000FFF754BF1FB50A4601460020084C8DF83B
:103820000C000123A46803A88DE819000548FEF7E1
:10383000E3F808B1FFF738FF9DF80C0004B010BDA5
:1038400000000020DC0000203EB514460A46014678
:10385000074880680094CDE9013001230548FEF750
:10386000CBF8002802D0FFF71FFF01203EBD00006B
:1038700000000020DC0000201FB51346084C0A465B
:103880008DF80C300146A468012303A88DE81900C7
:103890000448FEF7AFF9002801D0FFF705FF1FBD70
:1038A00000000020DC000020FDF7A0BD2DE9F04164
:1038B000244886B00178002940D1234C01250570A9
:1038C0002068002640F0080020602068022700F0F1
:1038D0000800059068038DE8E100DFF87080694614
:1038E0004046FDF7B7FE206840F0080020602068E1
:1038F000694600F008000590A0148DE8E1004046FC
:10390000FDF7A8FE206840F0040020602068104CFD
:1039100000F00400059004208DE8E100694620468F
:10392000FDF798FE002204212046FDF779FF0122D1
:1039300004212046FDF774FF00F000FC06B0BDE84E
:10394000F08100000000002030380240000C0240EE
:10395000000802402DE9F843154D0C4607460022A9
:1039600004212846FDF75CFFDFF848804FF400563D
:10397000002231464046FDF753FF384600F02CFC4C
:103980000D4822466946C3680C48FFF75FFA08B144
:1039900000F0CAFB012231464046009CFDF740FF83
:1039A000012204212846FDF73BFF2046BDE8F883AD
:1039B00000080240000C02400000002030010020FE
:1039C00070B50546012251030948FDF729FF094C4E
:1039D000002204212046FDF723FF284600F0FCFBCF
:1039E0002046BDE8704001220421FDF719BF000008
:1039F000000C02400008024070B5054600224FF45A
:103A000000510948FDF70CFF084C00220421204614
:103A1000FDF706FF284600F0DFFB2046BDE87040BA
:103A200001220421FDF7FCBE000C02400008024008
:103A3000F0B503688C88DD68C5F30B452C4425047C
:103A4000882404EBC2141E5906F470461E51036804
:103A50000F68DE68C6F30B46761C3E442E431E51AB
:103A600004688B89E568C5F30A052B441D048C2383
:103A700003EBC213E65806F47046E65004688F68FC
:103A8000E668C6F30A06761C3E442E43E6509423AD
:103A9000046803EBC213E55825F00705E5500568F7
:103AA0000C69EC5091F831300C7E1F0226069C24E4
:103AB000056804EBC21491F8323055F804C04FF099
:103AC000000C45F804C091F8305046EA03433D43EA
:103AD0001D4303681D519823046803EBC213E55886
:103AE00025F0FF05E55005684C69EC50A0230468FB
:103AF00003EBC213E55840F20776B543E550D1E930
:103B000007452C430568EC50AC23046803EBC21353
:103B1000E55844F803C005684C6AEC500B698BB358
:103B2000012B32D0042B32D0022B30D0032B2ED0DD
:103B3000072B2CD00123B024056804EBC2142E59A6
:103B400006F0E0262E51D1E90065AD1B0E8D5D43D8
:103B50005E43ED1C45EA064305682B51B423046817
:103B600003EBC213E5586FF30A05E5500468C96A10
:103B7000E1500068842101EBC211425842F0010279
:103B80004250F0BDFFE70423D5E70323D3E7022328
:103B9000D1E700000F4810B50D4901600021022255
:103BA000C0E90112C160C0E90A1201634163FDF777
:103BB000A5FA08B1FDF78AF901210648FDF74AFA8E
:103BC000002803D0BDE81040FDF780B910BD00000B
:103BD00000B00240D803002000B5134887B0114957
:103BE000016001210022C0E901120421C1601021FD
:103BF0004023C0E904138023C0E906320262426216
:103C000082620091019102910391049105910691C4
:103C10006946FFF72AF8002801D0FDF757F907B0E9
:103C200000BD0000400100A0180400202DE9F04F65
:103C300087B014216846FCF71FFB66480024016822
:103C400041F004010160016801F00401059101687F
:103C500041F020010160016801F020010591016837
:103C600041F080010160016801F080010591016867
:103C700041F001010160016801F001010591016855
:103C800041F002010160016801F002010591016843
:103C900041F040010160016801F0400105910168B7
:103CA00041F010010160016801F010010591016807
:103CB00041F0080101600068DFF81C9100F0080085
:103CC0000590002216214846FDF7AAFDDFF80CA159
:103CD000002280215046FDF7A3FDDFF804B14FF428
:103CE0004057002239465846FDF79AFD4FF4C04828
:103CF000002241463B48FDF793FD16200090012528
:103D0000CDE90154694648460394FDF7A3FC364EBD
:103D100048F20700CDE90006694602945046FDF7D7
:103D200099FC80200090CDE90154694650460394E7
:103D3000FDF790FC2020CDE9000669460294484634
:103D4000FDF788FC0420CDE90004DFF8A090694667
:103D500048460294FDF77EFC4FF450400090022646
:103D6000CDE901640C20CDE9034069464846FDF7E2
:103D700071FC6803CDE90004694648460294FDF7EA
:103D800069FCE802CDE90004694658460294FDF753
:103D900061FC0097CDE90154694658460394FDF74C
:103DA00059FCF810CDE900060320CDE902400720B8
:103DB000049069465046FDF74DFCCDF80080CDE9F2
:103DC0000154694607480394FDF744FC07B0BDE879
:103DD000F08F00003038024000080240000002402E
:103DE000000C0240001802400000121000040240C3
:103DF000144810B5124901601349416000214FF485
:103E000080428160C0E9031241618161C161016248
:103E1000FDF76EFD08B1FDF759F800210948FDF7DF
:103E20000BFD08B1FDF752F800210648FDF725FD0E
:103E3000002803D0BDE81040FDF748B810BD0000D1
:103E4000005C00404C040020A086010070B59AB0D0
:103E500034216846FCF710FA34210DA8FCF70CFA5F
:103E60002F482E490024C0E9001484600721C46053
:103E7000C0E90441032181610E210525C0E9071530
:103E80004FF4A7714162F52181624FF4AA71C162BA
:103E9000F721016380F8344080F8354080F83640DF
:103EA000FEF730F808B1FDF711F8019402944FF4D1
:103EB0008066CDE90646039404940094CDE9085445
:103EC0008DF8304005948DF831400A940B948DF8AC
:103ED0003240002269461248FDF7D2FF08B1FCF7D4
:103EE000F5FF0D940E940F94109411941294CDE953
:103EF0001346CDE915548DF864408DF8654017944C
:103F000018948DF8664001220DA90548FDF7B8FF09
:103F1000002801D0FCF7DAFF1AB070BD006801403C
:103F2000A004002010B586B014216846FCF7A4F95F
:103F30001B48002419490594C0E900147F218160C1
:103F4000FF21C0E9031444618461FEF735FD08B127
:103F5000FCF7BCFF8DF800408DF801408DF8024061
:103F60000394002269460E480494FEF7EBFD08B165
:103F7000FCF7ACFF01208DF814008DF815008DF8CA
:103F800016008DF81740002205A90548FEF776FDBA
:103F9000002801D0FCF79AFF06B010BD00280040B1
:103FA000480500200F4810B50D4901604FF482719B
:103FB000416000218160C1604FF400720161C0E97D
:103FC0000512C1610162416281620A21C162FEF78C
:103FD000B3FE002803D0BDE81040FCF777BF10BD4A
:103FE0000050014068050020FEE770470907090EF0
:103FF000002806DA00F00F0000F1E02080F8141D20
:10400000704700F1E02080F8001470477047010904
:1040100001EB810100F00F0000EB4100C0B27047DE
:10402000002102E00A38C0B2491C0A28FAD2090766
:1040300040EA11607047000070B504460068C1682E
:10404000490614D44FF0FF31C160FDF7EFFB054680
:104050004FF47A7607E000BFFDF7E8FB401BB04263
:1040600001D9032070BD2068C0684006F4D5002047
:1040700070BD38B50B46009204460022802100F046
:1040800008F8002804D0606D40F02000606503202F
:1040900038BD2DE9F0411D4617460E460446DDF8B1
:1040A000188035E0681C33D02DB1FDF7BFFBA0EBC5
:1040B0000800A8422CD32068416821F0E00141604B
:1040C0006068B0F5827F0BD1A068B0F5004F02D0D8
:1040D000B0F5806F04D12068016821F040010160D3
:1040E000A06AB0F5005F0AD1206801684DF6FF7242
:1040F000114001602068016841F400510160012015
:1041000084F85100002084F850000320BDE8F081BD
:104110002068806836EA000004D00020B842C1D18F
:104120000020F3E70120F9E710B50348FEF7EAFDA8
:10413000BDE8104000F002B83001002000B587B0A3
:104140002148FEF7F6FD00283BD11F481F490160BA
:104150001821C16100218160416107220161C0E92C
:104160000A12C1604FF400720162826141624FF431
:10417000827141601648016841F480110160006855
:1041800000F48010059012481438016841F02001B5
:1041900001600068694600F0200005904FF46070EF
:1041A00000900220019002900120039005200490CD
:1041B0000848FDF74FFA07B003485DF804EBFEF737
:1041C000BBBD07B000BD0000300100200050014021
:1041D000443802400014024001B5064801226946F5
:1041E000C3680548FEF7DAFE002801D0FFF79CFF00
:1041F00008BD000000000020300100207047FDF7DE
:10420000FDBD000030B59FB030216846FCF734F8A2
:10421000142118A8FCF730F830210CA8FCF72CF872
:1042200020480025016841F080510160006800F0DD
:1042300080501D901C48016841F4404101600068B5
:10424000022400F440401D90092000904FF480307B
:1042500001900120CDE90504800507900420089015
:10426000A820CDE9090407200B906846FEF7C8F99D
:1042700018A90F2081E831004FF4A0501B901C902A
:10428000052118A8FEF7E4F828200C90D8201090FB
:1042900012942002CDE915500CA8FDF7BFFF1FB006
:1042A00030BD0000403802400070004010480168F6
:1042B00041F4700101600F48016841F001010160A3
:1042C0000C4A00210832116002680B4B1A40026050
:1042D000031D0A4A1A60026822F48022026005481F
:1042E0000C300160024958068039086070470000B0
:1042F00088ED00E000380240FFFFF6FE1030002499
:10430000FEE700000FB4084B10B504A902AA0398F9
:1043100000F01CF8044602A9002000F0B8F920467D
:1043200010BC5DF814FB00008F46000802E008C8CE
:10433000121F08C1002AFAD170477047002001E01F
:1043400001C1121F002AFBD1704700002DE9FF4F69
:104350008BB088460546002606E025280BD0DDE90F
:104360000D1290476D1C761C28780028F5D10FB0EF
:104370003046BDE8F08F0024A146A2460122AE4996
:1043800000E0044315F8013F203B02FA03F0084225
:10439000F7D128782A2810D06FF02F022878A0F1C2
:1043A0003001092915D809EB890102EB410144F0DC
:1043B000020400EB01096D1CF0E758F8041B5FEAEA
:1043C000010903D544F40054C9F1000944F0020482
:1043D0006D1C28782E2817D115F8010F44F004041D
:1043E0002A280ED06FF02F022878A0F13001092979
:1043F0000AD80AEB8A0102EB410100EB010A6D1CAD
:10440000F2E758F804AB6D1C28786C280FD006DC56
:104410004C2817D068280DD06A2814D104E07428DD
:1044200010D07A280FD10DE044F400140AE044F4CF
:10443000801401E044F440146978814202D104F50B
:1044400080146D1C6D1C2878692865D006DC002856
:104450008DD0632827D0642806D15DE06E2808D06F
:1044600073282AD0752877D0DDE90D129047761C85
:10447000E0E0C4F30250022809D003280DD0D8F898
:10448000001004280DD00E6008F10408D2E0D8F81E
:104490000010F217C1E90062F6E7D8F800100E80AC
:1044A000F2E70E70F0E718F8041B8DF800100020FA
:1044B0008DF80100EB46012003E058F804BB4FF0F3
:1044C000FF3061074FF0000701D40AE07F1C574519
:1044D0000DDA8742FADB1BF807100029F6D106E057
:1044E0007F1C8742FCDB1BF807100029F8D1DDE9AF
:1044F0000D23A9EB07008146214600F0B1F83044B6
:10450000C61904E0DDE90D121BF8010B90477F1E70
:10451000F8D22146484688E058F8040BC4F302510B
:104520004FF00A0B032900D100B2042900D140B298
:10453000002802DA40422D2102E0210505D52B2179
:104540008DF82410012104E006E0E10710D02021BD
:10455000F6E708AF089113E058F8040BC4F30251D2
:104560004FF00A0B032900D180B2042900D1C0B258
:104570000021EEE75946FBF78AFE303107F8011DAE
:104580000028F7D1ADEB070000F1200B600702D542
:1045900024F4803401E04FF0010ADA4502DDAAEB91
:1045A0000B0000E00020824600EB0B01089801445C
:1045B000A9EB01000A90E00306D4DDE90D232146B2
:1045C0000A9800F04DF806444FF0000908E009A9E8
:1045D00011F80900DDE90D12904709F10109761C77
:1045E00008998945F3DBE0030CD5DDE90D2321466D
:1045F0000A9800F035F8064404E0DDE90D12302099
:104600009047761CBAF10001AAF1010AF5DC05E039
:10461000DDE90D1217F8010B9047761CBBF1000184
:10462000ABF1010BF4DC0A982146DDE90D2300F023
:1046300005F806446D1C97E6092801002DE9F041B4
:10464000044600251E461746880404D405E0394672
:104650002020B0476D1C641EF9D52846BDE8F081C6
:104660002DE9F041044600251E469046C80301D5B9
:10467000302700E02027880404D505E0414638466D
:10468000B0476D1C641EF9D52846BDE8F0810A6864
:10469000531C0B60107070472820FFF7ADB929201C
:1046A000FFF7AAB94FF4A0707047F020704710B51B
:1046B000FFF7FCF8CA20FFF79FF9C320FFF780F946
:1046C0000820FFF77DF95020FFF77AF9CF20FFF798
:1046D00093F90020FFF774F9C120FFF771F930203A
:1046E000FFF76EF9ED20FFF787F96420FFF768F90F
:1046F0000320FFF765F91220FFF762F98120FFF729
:104700005FF9E820FFF778F98520FFF759F90020D5
:10471000FFF756F97820FFF753F9CB20FFF76CF934
:104720003920FFF74DF92C20FFF74AF90020FFF759
:1047300047F93420FFF744F90220FFF741F9F72049
:10474000FFF75AF92020FFF73BF9EA20FFF754F969
:104750000020FFF735F90020FFF732F9B120FFF70D
:104760004BF90020FFF72CF91B20FFF729F9B620A1
:10477000FFF742F90A20FFF723F9A220FFF720F9FB
:10478000C020FFF739F91020FFF71AF9C120FFF711
:1047900033F91020FFF714F9C520FFF72DF9452054
:1047A000FFF70EF91520FFF70BF9C720FFF724F9E3
:1047B0009020FFF705F93620FFF71EF9C820FFF714
:1047C000FFF8F220FFF718F90020FFF7F9F8B02002
:1047D000FFF712F9C220FFF7F3F8B620FFF70CF944
:1047E0000A20FFF7EDF8A720FFF7EAF82720FFF7E8
:1047F000E7F80420FFF7E4F82A20FFF7FDF800208F
:10480000FFF7DEF80020FFF7DBF80020FFF7D8F80D
:10481000EF20FFF7D5F82B20FFF7EEF80020FFF789
:10482000CFF80020FFF7CCF80120FFF7C9F83F20B0
:10483000FFF7C6F8F620FFF7DFF80120FFF7C0F812
:104840000020FFF7BDF80620FFF7BAF82C20FFF78D
:10485000D3F8C820FFF728F82620FFF7CDF801206D
:10486000FFF7AEF8E020FFF7C7F80F20FFF7A8F832
:104870002920FFF7A5F82420FFF7A2F80C20FFF766
:104880009FF80E20FFF79CF80920FFF799F84E20BB
:10489000FFF796F87820FFF793F83C20FFF790F8A1
:1048A0000920FFF78DF81320FFF78AF80520FFF79E
:1048B00087F81720FFF784F81120FFF781F8002010
:1048C000FFF77EF8E120FFF797F80020FFF778F870
:1048D0001620FFF775F81B20FFF772F80420FFF78A
:1048E0006FF81120FFF76CF80720FFF769F8312007
:1048F000FFF766F83320FFF763F84220FFF760F810
:104900000520FFF75DF80C20FFF75AF80A20FFF7A3
:1049100057F82820FFF754F82F20FFF751F80F2001
:10492000FFF74EF81120FFF767F8C820FEF7BCFF2D
:104930002920FFF761F8BDE810402C20FFF75CB894
:1049400010B5FEF7B3FF0321D320FFF703F880B2C1
:1049500010BD000088B012208DF8000002208DF8F4
:10496000010000208DF802000B218DF816100121A6
:104970008DF815108DF81410234C10218DF8171098
:104980006070FDF743FAFFF73DFCFFF74FF9FFF7C3
:1049900001F9FFF72DFAFFF759FAFFF703FBFFF7CD
:1049A0001BF9FFF7BFFAFBF791FE4FF05045294680
:1049B0000020FBF7D5FE29460120FBF7D1FE0120A0
:1049C000FBF7A4FFFBF7E2FCA817FBF7A7FC0F48D7
:1049D000FBF7B0FF4FF4A071F020FCF741F9002283
:1049E00005A90B48FEF74AF8002269460848FEF779
:1049F000A9F805AA6946607800F00CF8024906A8F3
:104A0000491C00F029FAF4E7A80000200000FFFF8D
:104A100048050020F0B591B016460C46074600F058
:104A2000B1F83E4D022F11D000206860B7B1012FC0
:104A300041D13BA10320FBF715FD04213C4A084668
:104A4000FBF71EFD04213B4ADA2063E03AA1022075
:104A5000FBF708FD686800282FD03AE039A1032051
:104A6000FBF700FD334A0421DA20FBF709FD0022A1
:104A700021463848FDF774FF002231463548FDF7DE
:104A80004DFFA07800906378227833A101A8FFF74A
:104A900039FC73780093B27833A109A8FFF732FC90
:104AA0003648FBF739FF01A90520FBF7DBFC09A914
:104AB0000620FBF7D7FC11B0F0BD002221462548A7
:104AC000FDF74EFF002231462248FDF727FF012067
:104AD000686022782A6163786B61A078A861009091
:104AE0001DA101A8FFF70EFC2548FBF715FF0123C8
:104AF00001AA78210020FBF753FCA868012806D101
:104B0000E86820B904229C214420FBF71FFD042102
:104B1000074A0846FBF7B4FCCDE70000A8000020D8
:104B2000434F4E4649472053435245454E000000EF
:104B3000A0BE00085EC1000854494D4520434F4EB9
:104B40004649470053544152542053435245454E21
:104B50000000000048050020253032643A2530323C
:104B6000643A253032640000253032642F2530321B
:104B7000642F32302530326400000000280000200D
:104B80002000002010B54FF488740B4A2146052000
:104B9000FBF776FC094A21464420FBF771FC084AE2
:104BA00021468320FBF76CFC2146BDE81040054AF6
:104BB000BD20FBF765BC0000349A0008FE870008A2
:104BC000C87500086AAC00080A46C0B20B21FEF79F
:104BD00053BE10B50446C0B20921FEF71BFE20F0FB
:104BE0000102E0B2BDE810400921FEF745BE70B5F4
:104BF0000D460446C0B20A21FEF70CFE20EA05026B
:104C0000E0B2BDE870400A21FEF736BE10B504469A
:104C1000C0B20921FEF7FEFD40F00102E0B2BDE89E
:104C200010400921FEF728BE70B50D460446C0B2FB
:104C30000A21FEF7EFFD40EA0502E0B2BDE8704050
:104C40000A21FEF719BE00000146054A0020135C48
:104C50008B4204D0401CC0B20228F8D3FF2070471A
:104C6000A400002070B50D460446C0B21721FEF71F
:104C7000D1FD20EA0502E0B2BDE870401721FEF741
:104C8000FBBD000010B50446FFF7DEFFFF280DD185
:104C90000020FFF7D9FF022808D205490C54FEF77F
:104CA000B7FD2046BDE8104000F014B810BD00006C
:104CB000A400002070B50446FEF7AAFDE0B2012171
:104CC000FEF7A8FD0546E0B20021FEF7A3FD45EA88
:104CD000002070BD10B50446C0B202220321FEF7C9
:104CE000CBFD0A20FEF76AFDE0B200220321FEF7A9
:104CF000C3FDBDE810400220FEF760BD1F21FFF795
:104D000063BF70B504460025C0B24021FEF782FDA6
:104D1000C009E0B205D04C21FEF77CFD50B1012561
:104D200008E001224B21FEF7A7FDE0B200224B2153
:104D3000FEF7A2FD284670BD10B50446FFF749FFF7
:104D40002046BDE810401F21FFF751BF10B50446B3
:104D5000FEF736FD1F212046FFF766FF2046BDE81F
:104D60001040FFF753BFF8B515460E460446C0B2D3
:104D700004236A46D721FEF767FD0098012203BA93
:104D80009DF803004B210343180D3080C3F30B2023
:104D90002880E0B2FEF770FDE0B200224B21FEF762
:104DA0006BFDF8BD10B5C0B20B21FEF733FD00F06E
:104DB0001F0010BD70B50446C0B20421FEF72AFDE5
:104DC00020F00405E0B22A460421FEF755FDF0214B
:104DD0002046FFF747FF25F00302E0B20421FEF76B
:104DE0004BFDE0B249222021FEF746FD0220FEF7EE
:104DF000E5FCE0B201222121FEF73EFDE0B29A225D
:104E00004121FEF739FDE0B201224A21FEF734FDCF
:104E1000E0B201224B21FEF72FFDE0B200224B2130
:104E2000FEF72AFDE0B201225621FEF725FDE0B291
:104E300001225821FEF720FDE0B201224021FEF7B9
:104E40001BFDE0B2FF220B21FEF716FDBDE870400E
:104E50000220FEF7B3BC000070B588B00C460546D2
:104E6000FBF7A6FE2888002828D06A882AA1684671
:104E7000FFF748FA2A48FBF74FFD69460320FBF786
:104E8000F1FAAA8827A16846FFF73CFA2448FBF705
:104E900043FD69460420FBF7E5FAA888B0F5837F57
:104EA0000CD969880120214A372909D2217821B1FA
:104EB000012902D0022900D19060107008B070BDA5
:104EC0000023A1F137065D1E422E0CD21178002975
:104ED000F4D121780029F1D0012902D002290ED085
:104EE000ECE723700CE0A1F179063A2E0FD211788D
:104EF0000029E3D1217811B10129DFD102202070EE
:104F00007820FCF773FA2846FBF708FAD6E7B3399E
:104F10003D29D3D21370D1E7583A20256400000010
:104F200028000020593A202564000000A800002035
:104F30000000000000000000000000000000000071
:104F40000000000000000000000000000000000061
:104F50000000000000000000000000000000000051
:104F60000000000000000000000000000000000041
:104F700000000000000000000000000000000380AE
:104F80000003800003800003800003800003800092
:104F90000380000380000380000100000100000086
:104FA00000000000000380000380000000000000FB
:104FB00000000000000000000000000000000000F1
:104FC0000000000000000000000E70000E70000ED7
:104FD00070000420000420000420000420000000D1
:104FE00000000000000000000000000000000000C1
:104FF00000000000000000000000000000000000B1
:10500000000000000000000000000000000006603A
:10501000000660000660000660000660003FF800C1
:105020003FF8000660000CC0003FF8003FF8000C9D
:10503000C0000CC0000CC0000CC0000CC000000080
:105040000000000000000000000000000000000060
:1050500000000001800001800007B0000FF0001880
:1050600070001870001C00000F800007E00000F0C6
:10507000001830001C30001C70001FE0001BC00036
:10508000018000018000018000018000000000001C
:105090000000000000000000000000000000078089
:1050A000000FC0001CE0001860001860001CE00049
:1050B0000FF80007E0001FF0000738000618000690
:1050C000180007380003F00001E0000000000000B5
:1050D00000000000000000000000000000000000D0
:1050E00000000000000000000000000003F00007C6
:1050F000F0000C60000C00000C000006000007002F
:10510000000F9C001DFC0018F0001870000FFC0040
:1051100007DC0000000000000000000000000000AC
:10512000000000000000000000000000000000007F
:1051300000038000038000038000010000010000E4
:10514000010000010000000000000000000000005D
:10515000000000000000000000000000000000004F
:10516000000000000000000000000000000000003F
:10517000000000000000001800003800007000006F
:10518000F00000E00000E00001C00001C00001C02C
:105190000001C00001C00001C00000E00000E0000C
:1051A00000700000700000380000180000000000CF
:1051B00000000000000000000000000000001800D7
:1051C000001C00000E00000E000007000007000099
:1051D000038000038000038000038000038000033D
:1051E00080000700000700000F00000E00001C00F8
:1051F0000018000000000000000000000000000097
:105200000000000000000180000180000180001DFE
:10521000B8001FF80007E00003C00003C0000660EC
:105220000006600000000000000000000000000018
:10523000000000000000000000000000000000006E
:10524000000000000000000000000000000000005E
:10525000000000000180000180000180000180004A
:105260000180003FFC003FFC000180000180000144
:1052700080000180000180000000000000000000AC
:10528000000000000000000000000000000000001E
:10529000000000000000000000000000000000000E
:1052A00000000000000000000000000000000000FE
:1052B0000000000000000000000000E00000C0004E
:1052C00001C0000180000180000300000300000015
:1052D00000000000000000000000000000000000CE
:1052E00000000000000000000000000000000000BE
:1052F0000000001FF8001FF8000000000000000080
:10530000000000000000000000000000000000009D
:10531000000000000000000000000000000000008D
:10532000000000000000000000000000000000007D
:10533000000000000000000000000000000000006D
:105340000000000000000000000003C00003C000D7
:1053500003C000000000000000000000000000008A
:1053600000000000000000000018000018000038D5
:105370000000300000700000600000600000C0000D
:1053800000C000018000018000030000030000064F
:1053900000000600000E00000C00001C00001800B9
:1053A00000180000000000000000000000000000E5
:1053B00000000000000003C00007E0000C30000CFB
:1053C00030001818001818001818001818001818BD
:1053D000001818001818000C30000C300007E0000E
:1053E00003C00000000000000000000000000000FA
:1053F000000000000000000000000000000000802D
:10540000000780001F80001D8000018000018000D7
:105410000180000180000180000180000180000106
:1054200080000180001FF8001FF80000000000004D
:10543000000000000000000000000000000000006C
:1054400000000000000007C0001FF00038300030EE
:10545000180030180000180000300000600001C083
:10546000000380000600000C00001800003FF80058
:105470003FF80000000000000000000000000000F5
:10548000000000000000000000000000000003C059
:10549000000FE0000C7000003000003000006000E1
:1054A00003C00003E00000700000180000180000B6
:1054B00018001838001FF0000FC0000000000000A6
:1054C00000000000000000000000000000000000DC
:1054D00000000000000000E00001E00001E0000327
:1054E00060000660000660000C60000C6000186040
:1054F000003060003FF8003FF80000600003F80053
:1055000003F80000000000000000000000000000A0
:1055100000000000000000000000000000001FF07C
:10552000001FF0001800001800001800001BC00049
:105530001FF0001C300000180000180000180000C8
:1055400018003030003FF0000FC0000000000000E5
:10555000000000000000000000000000000000004B
:1055600000000000000000F80003F8000700000E33
:1055700000000C00001800001BC0001FF0001C30D1
:10558000001818001818001818000C38000FF00048
:1055900003E0000000000000000000000000000028
:1055A00000000000000000000000000000001FF8E4
:1055B000001FF800181800183800003000003000F4
:1055C00000700000600000600000E00000C000000B
:1055D000C00001C000018000018000000000000048
:1055E00000000000000000000000000000000000BB
:1055F00000000000000007E0000FF0001C38001859
:1056000018001818000C300007E00007E0000C300C
:10561000001818001818001818001C38000FF000A7
:1056200007E0000000000000000000000000000093
:10563000000000000000000000000000000007C0A3
:10564000000FF0001C30001818001818001818007F
:105650000C38000FF80003D80000180000300000DC
:10566000700000E0001FC0001F00000000000000EC
:10567000000000000000000000000000000000002A
:10568000000000000000000000000000000000001A
:10569000000003C00003C00003C0000000000000C1
:1056A0000000000000000000000003C00003C00074
:1056B00003C0000000000000000000000000000027
:1056C00000000000000000000000000000000000DA
:1056D0000000000000000000000000F00000F000EA
:1056E00000F00000000000000000000000000000CA
:1056F000E00001C000018000018000030000020002
:105700000000000000000000000000000000000099
:10571000000000000000000000000000001C00006D
:105720003C0000F00003C0000F00003C0000F0004F
:10573000003C00000F000003C00000F000003C002F
:10574000001C00000000000000000000000000003D
:105750000000000000000000000000000000000049
:10576000000000000000000000000000007FFC00BE
:105770007FFC000000000000007FFC007FFC0000B8
:105780000000000000000000000000000000000019
:105790000000000000000000000000000000000009
:1057A0000000000000000000000000007000007811
:1057B00000001E000007800001E000007800001ECD
:1057C0000000780001E0000780001E000078000063
:1057D0007000000000000000000000000000000059
:1057E00000000000000000000000000000000000B9
:1057F0000007C0000FE000187000183000183000DB
:1058000000700000E00003C00003800003000000FF
:10581000000000000007000007000000000000007A
:105820000000000000000000000000000000000078
:1058300000000000000003E00007F0000E38000C3C
:10584000180018780018F80019D80019980019984D
:105850000019980018F8001878001800000C0000D3
:105860000E180007F80003E0000000000000000030
:105870000000000000000000000000000000000028
:10588000001F80001FC00001C00003600003600013
:105890000630000630000C30000FF8001FF800182A
:1058A0000C00300C00FC7F00FC7F000000000000BA
:1058B00000000000000000000000000000000000E8
:1058C0000000000000000000007FE0007FF00018F2
:1058D00038001818001818001838001FF0001FF8BA
:1058E00000181C00180C00180C00180C007FF800A1
:1058F0007FF0000000000000000000000000000039
:105900000000000000000000000000000000000097
:105910000003EC000FFC001C1C00180C00300C00F5
:10592000300000300000300000300000300000186F
:105930000C001C1C000FF80003F000000000000029
:105940000000000000000000000000000000000057
:105950000000000000000000007FC0007FF0001881
:105960003800181800180C00180C00180C00180C3F
:1059700000180C00180C001818001838007FF000F0
:105980007FE00000000000000000000000000000B8
:105990000000000000000000000000000000000007
:1059A000007FF8007FF800181800181800199800F8
:1059B0001980001F80001F800019800019980018AE
:1059C00018001818007FF8007FF8000000000000A1
:1059D00000000000000000000000000000000000C7
:1059E0000000000000000000003FFC003FFC000C35
:1059F0000C000C0C000CCC000CC0000FC0000FC041
:105A0000000CC0000CC0000C00000C00003FC000E7
:105A10003FC0000000000000000000000000000087
:105A20000000000000000000000000000000000076
:105A30000003EC000FFC001C1C00180C00300C00D4
:105A400030000030000030FE0030FE00300C003826
:105A50000C001C1C000FFC0003F000000000000004
:105A60000000000000000000000000000000000036
:105A70000000000000000000007E7E007E7E001816
:105A800018001818001818001818001FF8001FF840
:105A9000001818001818001818001818007E7E004A
:105AA0007E7E0000000000000000000000000000FA
:105AB00000000000000000000000000000000000E6
:105AC000001FF8001FF80001800001800001800025
:105AD0000180000180000180000180000180000140
