:020000040800F2
:10000000F8090020C101000837490008D13B000869
:1000100035490008B1110008B14C0008000000008B
:10002000000000000000000000000000AD4B0008D0
:100030002D1300080000000059490008AF4B0008CC
:10004000DB010008DB010008DB010008DB01000820
:10005000DB010008DB010008DB010008DB01000810
:10006000DB010008DB010008DB010008DB01000800
:10007000DB010008DB010008DB010008DB010008F0
:10008000DB010008DB010008DB010008DB010008E0
:10009000DB010008DB010008DB010008DB010008D0
:1000A000DB010008DB010008DB010008DB010008C0
:1000B000DB010008DB010008DB010008DB010008B0
:1000C000DB010008DB010008DB010008DB010008A0
:1000D000DB010008DB010008DB010008DB01000890
:1000E000DB010008DB010008DB010008DB01000880
:1000F000DB010008DB010008DB010008DB01000870
:10010000DB010008DB010008DB010008DB0100085F
:10011000DB010008DB010008DB010008DB0100084F
:10012000DB010008DB010008DB010008DB0100083F
:10013000DB010008DB010008DB010008DB0100082F
:10014000DB010008DB010008DB010008DB0100081F
:10015000DB010008DB010008DB010008DB0100080F
:10016000DB010008DB010008DB010008DB010008FF
:10017000DB010008DB010008DB01000800000000D3
:10018000DB010008DB010008DB010008DB010008DF
:10019000DB010008DB010008DB010008DB010008CF
:1001A000DB010008DB010008DB010008DFF80CD0F0
:1001B00000F09CFA00480047115B0008F809002095
:1001C0000648804706480047FEE7FEE7FEE7FEE7F1
:1001D000FEE7FEE7FEE7FEE7FEE7FEE75D4C000810
:1001E000AD0100082DE9F05F0546002092469B46D0
:1001F00088460646814640241BE02846414647463D
:10020000224600F0BCF953465A46C01A914110D319
:1002100011461846224600F0A3F92D1A67EB010893
:100220004F4622460120002100F09AF917EB000901
:100230004E41201EA4F10104DFDC484631462A4627
:100240004346BDE8F09F40EA01039B0703D009E065
:1002500008C9121F08C0042AFAD203E011F8013BB2
:1002600000F8013B521EF9D27047D2B201E000F80B
:10027000012B491EFBD270470022F6E710B513464A
:100280000A4604461946FFF7F0FF204610BD2DE947
:10029000FE4F804681EA0300C00F0C46009021F01B
:1002A000004123F00045B8EB0200A94105D24046C9
:1002B000214690461C460B46024623F00040104360
:1002C00047D0270DC7F30A00C3F30A510290401A22
:1002D000019040286BDAC3F3130040F4801B0098B0
:1002E000924620B10023D2EB030A63EB0B0B01987B
:1002F0005946C0F14002504600F032F906460D461C
:1003000050465946019A00F04AF910EB0800614145
:10031000002487EA115284EAE7731A4340D0009A16
:1003200062B3019A012A4FEA075215DC001B61EB08
:1003300002014FF0004202EA0752CDE90042001CE0
:1003400041F5801132462B4600F081F903B0BDE83B
:10035000F08F40462146F9E7001B61EB0201001CCB
:1003600041F5801300185B412018A2F5001747EBF8
:10037000030140EAD570B6196D4111E06D084FEAEE
:10038000360645EAC0754FEA0752001B61EB0201D1
:10039000001C41F5801149084FEA30000019514115
:1003A00032462B4603B0BDE8F04F00F041B900984B
:1003B000012240000023D0EB020263EBE0730098BF
:1003C00021464FEAE074B8EB000061EB0401E9E775
:1003D00083F000435BE781F0004158E72DE9FE4FD1
:1003E00081EA030404F0004421F0004100944FF03E
:1003F000000B23F0004350EA01045ED052EA0304EC
:100400005BD0C3F30A54C1F30A552C44A4F2F3346D
:100410000194A0FB0254C1F3130141F48011C3F312
:10042000130343F4801301FB024400FB034E840AD0
:10043000970A44EA815447EA8357A4FB0768029568
:100440008D0A05FB07854FEA932C04FB0C54270506
:10045000029D4FEA065847EA1637B5EB08056EEBE2
:10046000070C870E920E47EA811742EA8312A7FB18
:100470000201B6EB0B0164EB00042B0D43EA0C33D5
:100480005E1844EB1C50DA465146E7FB0201C5F307
:1004900013044FEA0B3343EA14534FEA0432019C2E
:1004A00043EA0603A4F10C040294009CCDE900B4D5
:1004B00000F0CDF803B0BDE8F08F00200146F9E769
:1004C0000EB5C10F80EAE0700844CA07002140F26F
:1004D00033438DE80E000A460B4600F0B8F803B02F
:1004E00000BD0EB540F2334102910021CDE900116B
:1004F0000A460B4600F0ABF803B000BD01F0004324
:1005000030B421F0004150EA010206D00A0DA2F5F4
:100510006072C1F31301002A02DC30BC0020704776
:10052000440F44EAC104C100E01830BC00EBC250E3
:1005300000F047B830B50B460146002020220124C8
:1005400009E021FA02F59D4205D303FA02F5491BA1
:1005500004FA02F52844151EA2F10102F1DC30BDB7
:10056000202A04DB203A00FA02F100207047914073
:10057000C2F1200320FA03F3194390407047202A68
:1005800004DB203A21FA02F00021704721FA02F33D
:10059000D040C2F120029140084319467047202AFA
:1005A00006DBCB17203A41FA02F043EAE07306E09B
:1005B00041FA02F3D040C2F12002914008431946AB
:1005C00070470029A8BF7047401C490008BF20F0B1
:1005D0000100704710B4B0FA80FC00FA0CF050EA49
:1005E000010404BF10BC704749B1CCF1200421FACA
:1005F00004F411FA0CF118BF012121430843A3EBC5
:100600000C01CB1D4FEA00614FEA102042BF0020D1
:1006100010BC704700EBC35010440029A4BF10BCAD
:100620007047401C490008BF20F0010010BC704713
:1006300010B5141E73F1000408DA401C41F10001EA
:1006400092185B411A4301D120F0010010BD2DE941
:10065000F04D92469B4611B1B1FA81F202E0B0FA38
:1006600080F220329046FFF77BFF04460F4640EAB7
:100670000A0041EA0B0153465A46084313D011467B
:1006800053EA010019D0C8F140025046FFF777FF46
:1006900005460E46504659464246FFF761FF08435D
:1006A00005D0012004E020463946BDE8F08D002049
:1006B000054346EAE0762C4337430A986305E40A8B
:1006C000A0EB08000022FD0A44EA47540A3002D594
:1006D00000200146E9E7010510196941DDE90845F7
:1006E00000196941BDE8F04DA2E70000064C074D36
:1006F00006E0E06840F0010394E8070098471034F2
:10070000AC42F6D3FFF756FD78450108984501083D
:10071000454910B54A6822F440324A604A68436845
:100720001A434A6001684A6822F480724A6001688C
:100730004A68036942EA03224A6001684A6822F073
:1007400040724A6001684A6883681A434A600168D7
:100750008A6822F400628A6001688A68C3681A4362
:100760008A60816A6FF07062D14201688A6822F003
:1007700070628A6001688A680CD0836A1A438A6052
:1007800001688A6822F040528A6001688A68C36AF8
:100790001A4301E022F040528A6001688A6822F020
:1007A00002028A6001688A68836942EA43028A60B9
:1007B000016A002901684A680FD042F400624A6069
:1007C00001684A6822F460424A6001684A68174C2E
:1007D000436A04EB43331A4301E022F400624A60A7
:1007E0000168CA6A22F47002CA620168CA6A838B0D
:1007F0000F4C04EB03531A43CA6201688A6822F45F
:1008000000728A6001688A68036B42EA43228A6048
:1008100001688A6822F480628A6001688A68406997
:1008200042EA8020886010BD0023014000E0FFFF05
:100830000000F0FF7CB5054600F0CEF9044600F05C
:10084000C5F902460020CDE900050748074B0068BE
:1008500000EB800101EBC00103EB81012346C96D70
:1008600000F054FE7CBD0000180000207401002040
:100870000A4B30B41B6803EB4304094B03EB8403BE
:100880009B68DD881C689B88DB1DDB08203A13FB16
:1008900002F205FB024230BC00F04ABD1800002005
:1008A0008C020020034840688068002800D0004780
:1008B00070470000180000202DE9F047044600278B
:1008C00099468A461546B846104601E008F10108E7
:1008D00010F8011B0029F9D100F078F9254A264EBD
:1008E0004B461168B9F1010F01EB410106EB8101A3
:1008F00089688988B0FBF1F002D0022B0BD105E0AA
:10090000A0EB0800484304EB500003E0A0EB080014
:1009100000FB014084B2904600F058F90146D8F837
:10092000000000EB400006EB80008068808807FB39
:10093000101189B2814213D3012012E051462046A2
:10094000FFF796FFD8F800007F1C00EB400006EB95
:100950008000BFB280686D1C8088204484B2DBE7D1
:1009600000202A780AB1012100E000210842E5D1E7
:10097000BDE8F087180000208C02002010B50A4660
:10098000034600F015F9C088BDE81040584381B215
:1009900003230020FFF790BF2DE9F05F88468346D0
:1009A000907AD17A144600EB0120117B527B090426
:1009B00001EB026100EB010AA07CE17C4FF0000931
:1009C00000EB0121207D0204607D02EB00600D1828
:1009D000A07DE17D627E00EB0120217E090401EB18
:1009E00002614718207F617F00EB012600F0EEF8DE
:1009F0001A4900FB08B0096801EB810202EBC10152
:100A0000174A02EB8101C96D01EB8008A6F12000B5
:100A1000082806D31030082801D2022000E0012067
:100A2000814604EB0A02781E68434FEAD60A00FBAF
:100A30000A2600240EE04B462A464146304600F086
:100A4000B9FB00F0C3F8401B411905FB1A6608EB1F
:100A50008108641CBC42EED3BDE8F09F1800002062
:100A6000740100202DE9FF5F824603208946A0EB38
:100A700042080025144678E03E4E3F4FA9EB040B98
:100A800030681FFA8BF100EB400057F820200AEB8A
:100A90000500039080B200F071F830681FFA8BF106
:100AA00000EB400057F82020AAEB0500029080B22E
:100AB00000F064F83068A9EB050B00EB40001FFA6A
:100AC0008BF157F820200AEB0400019080B200F06F
:100AD00055F830681FFA8BF100EB400057F82020E2
:100AE000AAEB0400009080B200F048F8306809EBEF
:100AF000040B00EB40001FFA8BF157F820200398FD
:100B000080B200F03BF830681FFA8BF100EB400038
:100B100057F82020029880B200F030F8306809EBD6
:100B2000050B00EB40001FFA8BF157F820200198CD
:100B300080B200F023F830681FFA8BF100EB400020
:100B400057F82020009880B200F018F8B8F1000F94
:100B500004DA08EB850000F1060805E0291B08EB24
:100B6000810000F10A08641E6D1CA54284D9BDE80D
:100B7000FF9F0000180000208C02002070B5144672
:100B80000D46064600F022F8074905FB006009689B
:100B900001EB810202EBC101044A02EB8101C96D44
:100BA00041F8204070BD00001800002074010020B2
:100BB00004480549006800EB400001EB80008068B4
:100BC00070470000180000208C0200200148406897
:100BD000806A00471800002001484068C06A00474A
:100BE0001800002070B5214C1F4800252060092006
:100BF00060610120A0611D20E0610320206240F2BD
:100C00000D10606240F24310A06240F21710E062E3
:100C100040F24710206384F8365084F8345004F1D1
:100C2000E80084F8355008210160C02101610421E9
:100C30008161C903416201F057FF6560A560E5600D
:100C4000256100F059F8204601F0C2FD0949084825
:100C500048600068804700F005F90648083000F059
:100C6000E7F8002070BD000000680140740100201A
:100C70004C0000201800002070B58EB000240E46F5
:100C800005460094FFF7A2FFCDE90104FFF7A4FF9A
:100C90000996CDE90304FF20CDE905048DF8304025
:100CA0008DF831408DF832404FF4C0600790072036
:100CB0000890FFF78BFF0A90FFF78EFF0B902A46F4
:100CC00069460A4801F042FD094905EB450001EB80
:100CD0008002631E5360074B93604FF07F4241F8E0
:100CE0002020024801F05CFD0EB070BD74010020B0
:100CF0008C0200202000002030B5434887B000213E
:100D0000026842F080620260006800F08060059036
:100D10003D481438026842F400020260026802F49E
:100D200000020592026842F001020260026802F0CD
:100D300001020592026842F002020260026802F0BB
:100D400002020592026842F004020260026802F0A8
:100D500004020592026842F008020260026802F092
:100D600008020592026842F020020260026802F066
:100D700020020592026842F040020260006800F022
:100D80004000059041F6580000900220CDE9010195
:100D900003900E20049069461C4801F0BDF84FF402
:100DA00070601B4C00906946204601F0B5F84FF486
:100DB000986000906946174801F0AEF8482000900E
:100DC0006946154801F0A8F82015009069461348B7
:100DD00001F0A2F84FF40C60114D009069462846CE
:100DE00001F09AF8032000900920049069462046FB
:100DF00001F092F84FF4A05000906946284601F0A7
:100E00008BF807B030BD00004438024000000240BB
:100E10000004024000080240000C0240001402409E
:100E200000180240014908607047000018000020C7
:100E30000449054A096801EB410102EB8101886020
:100E400070470000180000208C0200200349044A6B
:100E5000096801EB410142F82100704718000020A9
:100E60008C02002070B51B4819490423016000F171
:100E70003401022207248B60C1E90024C1E9034246
:100E80004A618A611021C0E9033140214161012694
:100E90000024C0E901644FF4C071C0E90614910256
:100EA000C0E9081489008162214600F05BF8094915
:100EB0000848343102F03FFB074D08B12E7000E0C6
:100EC0002C7040F26A5000F009F8287870BD0000DC
:100ED000400100A064030020380000202DE9F84FF5
:100EE0001F4C0025012608270095C4E90067C4E9C6
:100EF000026582464FF6FF7921464A46A1F150002D
:100F000002F04EFB012000F0D3FE0220C4E90007EE
:100F1000C4E9026521464A46A1F1500002F040FBB7
:100F200003204FF00408E56084E8810121464A4629
:100F3000A1F1500002F034FB4FF40C700090C4E9B2
:100F40000260C4E9008721464A46A1F1500002F040
:100F500027FB5146A4F15000BDE8F84F02F00EBB4C
:100F6000B403002030B587B005007DD04D48002483
:100F7000016841F00101016000684A4900F0010088
:100F800008390590086840F480000860086800F49B
:100F900080000590086840F002000860086800F0D2
:100FA00002000590086840F004000860086800F03E
:100FB00004000590086840F008000860086800F028
:100FC00008000590086840F010000860086800F00C
:100FD00010000590086840F020000860086800F0E4
:100FE00020000590086840F04000086008686946E5
:100FF00000F0400005900220CDE9024001900C2055
:10100000049060200090284800F086FF01200090A6
:101010006946264800F080FF4CF203700090694654
:10102000234800F079FF4FF683700090694621480D
:1010300000F072FF4FF63F00009069461E4800F036
:101040006BFF48F23310009069461C4800F064FFC3
:101050001B498020C1E901408000C8604000086150
:1010600080004861800000E01AE0C1E90604C00089
:10107000C1E908040320C1E90A0412480C630860AE
:10108000296308468D6300F07DFD0D4800F0A6FD44
:1010900000220F21382001F0F5FC382001F0E6FC99
:1010A00007B030BD3838024000040240000802405A
:1010B000000C0240001002400014024000180240E0
:1010C000A4020020106402407CB52A4C0546E0686A
:1010D0000169822088472880002849D0E06801AA59
:1010E0006946436982209847BDF804000B21A0F5AA
:1010F000B47080B2ADF80400B0FBF1F020B16188AB
:10110000884201D9491E88B2BDF8001040F6B832B5
:10111000ADF80400914202D8A1F61E7101E0A1F6DB
:10112000D8614942ADF8001089B20F22B1FBF2F14B
:1011300021B12288914201D9521E91B2ADF800101E
:1011400062688BB2934201D98A1A00E0521A93B2B4
:10115000A268904201D9821A00E0121A92B21A448F
:10116000052A01D9C4E90110A08868802089A880D7
:101170007CBD00003C00002070B50B4D0B4C0126DF
:1011800028806980616882208847A0F50061113954
:1011900008D1EC600026216882208847E868C16891
:1011A00082208847304670BD3C000020840000202B
:1011B000FEE70000F8B50D46154906464FF48030AD
:1011C0004860002014468860FF22C860C1E90C0214
:1011D000C1E90A030F480860084600F0F1FB002847
:1011E00015D101210A4800F097FB00280FD10120FA
:1011F000009023462A463146054800F0A9FC002805
:1012000005D1BDE8F8400A21014800F01BBCF8BD3B
:101210001C02002000B00240F0B50468059E656C19
:1012200046EA034305F040451D4365640368DA63FD
:101230004268B2F5403F02D00068C160F0BD01F4E1
:101240007F4201F47F0C866801F07F4301F47F0741
:1012500001F47F45CCB242EA0C02BEB1012E16D099
:1012600001F47F02D20CC1F3C401022E11D0032E6F
:1012700014D0190F3A0D2D0B23092C0144EA022238
:1012800042EA01321A4300688263F0BD1A432243E6
:10129000F9E7AB0A5B0143EAC22206E0DB0FEC0A86
:1012A000640144EA822242EAC3320A43EBE70000C7
:1012B00001681823CAB2103AB2FBF3F2054B6FF380
:1012C0000901032A9B5CC36500D9091D8165084695
:1012D000704700005645010810B5014600208B6993
:1012E0008A6A4FF0C07453B1B3F5005F15D072B184
:1012F000012A0CD0022A0AD0032A09D104E01AB12B
:10130000012A06D0022A03D1C96AC90100D50120E9
:1013100010BDC96AA142FAD010BD002AF7D0012A37
:10132000F2D0022AF3D0032AF3D010BD7047000098
:101330002DE9F74FDFF8A4A00026DAF8000000EB53
:101340004001274800EB810080688588C788E81D38
:10135000834620F00700401B00F0FF093AE000BF81
:101360004FEADB010298012901FB06000BD002299C
:101370000BD0017842780904807841EA022141EAE1
:10138000000800241FE0007801E0008840BA804691
:10139000F7E7291B49440120491E884010EA080F3D
:1013A000DAF8000000EB40010D4802D050F821208F
:1013B00002E000EB8100426800980199204480B26D
:1013C000FFF7DCFB641CAC42E3D30198401C80B205
:1013D000761C0190BE42C3D3BDE8FE8F18000020EA
:1013E0008C020020704730B5D1E901231A43D1E9BE
:1013F00003352B431A434B690C681A438B691A4314
:10140000D1E90735012C496A046807D01A432A43F9
:101410006FF30E040A43224302600AE024F4F84406
:101420002B4321430B43416803606FF30E010A43D2
:101430004260002030BD426942EA41014161002022
:101440007047F8B514460546D1E9000210438A6892
:101450006FF01F03C96803EB421242EA41210843BF
:101460000090286100F048FE064609E0601C07D0A5
:1014700024B100F041FE801BA04201D90320F8BD39
:10148000A8698006F2D40020F8BD0000F0B56FF026
:101490000F05D1E9003405EB04145B1E23432E0134
:1014A0008C682F0306EB042423434FEA054C0C8A77
:1014B0008E8ACD68097E4FF07F4E07EB04440CEB1B
:1014C00006560EEB0161012A0CD082683F1107EB32
:1014D00005352B432343334302F070420B43134340
:1014E00083600FE08768084A17402A03A2F58052FC
:1014F0003243C5683A43234305F070450B432B4301
:101500008260C3600020F0BDFF0F0FFF2DE9F8439C
:101510000E460746DDE90818124815464FF44032DA
:1015200042600022C0E902210F491C46016000F020
:1015300047FA002814D139460A4800F0EDF900288E
:101540000ED12B46324641460648009400F000FB7F
:10155000002805D1BDE8F8430A21024800F072BA1C
:10156000BDE8F8831C02002000B0024078B50024DA
:10157000009490F83C20012A19D0012280F83C20E8
:101580000A6807230568092A13D9EE680A3A02EBAC
:10159000420293409E43EE600A788B680A3A02EB5F
:1015A000420293400268D5682B43D36010E00220CA
:1015B00078BD2E6902EB420293409E432E610A7869
:1015C0008B6802EB42029340026815692B4313615A
:1015D0004A681F23072A13D205686E6B521E02EB5E
:1015E000820293409E436E630B790A885B1E92B21F
:1015F00003EB83039A4003685D6B2A435A6327E039
:1016000005680D2A12D22E6BD21F02EB8202934084
:101610009E432E630B790A88DB1F92B203EB830390
:101620009A4003681D6B2A431A6311E0EE6A0D3A73
:1016300002EB820293409E43EE620B790A880D3BD7
:1016400092B203EB83039A400368DD6A2A43DA62AD
:10165000174B0568154A9D4206D10D68122D03D11E
:10166000556845F48005556005689D4219D1114DB6
:101670000B68AB4201D0112B13D1536843F4000324
:1016800053600968A9420CD10B490C4A0968B1FBA7
:10169000F2F101EB8101490000E0491E00910029AF
:1016A000FBD180F83C40002078BD000000230140C1
:1016B0000020014012000010C400002040420F0032
:1016C0000068C06C704770B504004FF0000503D08F
:1016D000206C002610B107E0012070BD666484F81C
:1016E0003C60204600F01AF8206CC00610D4206C34
:1016F00020F4885040F0020020642046FFF708F8EC
:101700006664206C20F0020040F00100206400E0DC
:10171000012584F83C60284670BD000010B586B0F5
:10172000044614216846FEF7A7FD11492068884247
:101730001CD110480021026842F4807202600068E7
:1017400000F4807005900B481438026842F00102E2
:101750000260006800F00100059020200090032046
:10176000CDE901016946044800F0D6FB06B010BD82
:101770000020014044380240000002402DE9F041C1
:10178000044600680D4681684FF0000749050BD5F7
:101790008068C00508D5206C40F02000206484F8E3
:1017A0003C700120BDE8F08100F0A6FC06460FE089
:1017B000681C0DD025B100F09FFC801BA84207D902
:1017C000206C40F00400206484F83C700320E9E7BA
:1017D000206800688007EBD521686FF01200086070
:1017E000206C40F4007020642068816811F0405F34
:1017F00013D1A16989B9C16A11F4700F02D0806850
:1018000040050AD4206C20F480702064206CC00451
:1018100003D4206C40F0010020640020C2E70000E7
:1018200018B50021009190F83C20012A07D0012230
:1018300080F83C2002689368DB0702D011E00220A8
:1018400018BD936843F001039360204A204B12684F
:10185000B2FBF3F202EB420200E0521E0092002AB9
:10186000FBD102689368DB072DD0036C40F2016462
:10187000A34343F48073036453685B0505D5036C8D
:1018800023F4005343F480530364036CDB0404D556
:10189000436C23F00603436400E0416480F83C108D
:1018A0000C496FF02203136049680068C90602D032
:1018B0000949884207D1816811F0405F03D18168EE
:1018C00041F080418160002018BD0000C40000206C
:1018D00040420F00002301400020014090F83C10DE
:1018E00001290CD0012180F83C1001688A6822F09F
:1018F00001028A6001688968C90702D007E00220F6
:101900007047016C21F4885141F00101016400210C
:1019100080F83C100846704770B500EB011290F853
:1019200038301832012B20D0012580F8385002239E
:1019300080F8393054680A2C19D0092C17D0138933
:10194000167B1B0443EA066323431C4CB1B10168B8
:10195000CE6926401E43CE61036811681961516843
:101960000A291ED009291CD020E0022070BDD368AE
:10197000168903F07F4343EA0643E5E70668716A88
:1019800021401943716203681168996151680A29FD
:1019900001D009290AD1D168026821F07F41916202
:1019A00004E0D168026821F07F41116280F839506B
:1019B000002180F83810084670BD0000F0FFFC00E0
:1019C00070B5040004D094F83900002510B106E089
:1019D000012070BD84F83850204600F01FF8022026
:1019E00084F8390020680168626821F440311143AD
:1019F00001602068416BA26821F007011143416337
:101A00002068016CE2686FF30D0111430164E56326
:101A1000012084F83900002070BD000008B500687E
:101A20000649884208D10648016841F40001016076
:101A3000006800F40000009008BD000000B0024003
:101A4000303802402DE9F84300260446009600682D
:101A50000D4600684FF00407C0074FF0030825D07B
:101A600000F04AFB81461DE04068009010F0210F15
:101A70000FD00098800603D5E06B40F00200E063D1
:101A80000098C00703D0E06B40F00100E063212024
:101A900032E0681C06D0C5B300F02EFBA0EB0900B5
:101AA000A8423CD8206841688907DDD52068C16913
:101AB000890602D4406A800640D500F01DFB8146AD
:101AC00038E04068009010F0290F1FD00098000700
:101AD00003D5E06B40F00400E0630098800603D576
:101AE000E06B40F00200E0630098C00703D0E06BB9
:101AF00040F00100E06329202168886084F8397093
:101B000084F838600120BDE8F88308E0681C11D033
:101B10002DB100F0F1FAA0EB0900A8420AD954F85F
:101B20003C0F40F0200044F8040984F8018026703E
:101B30000320E8E720684168C906C2D52168122061
:101B40008860012084F8390084F838600020DAE7E2
:101B500038B50446049894F83850012D10D001256A
:101B600084F83850022584F8395000902046FFF759
:101B700053FB2068016841F001010160002038BD7D
:101B8000022038BD70B5040025D094F83500022835
:101B900020D02068016821F0010101602068002543
:101BA000056020684560206885602068C560206801
:101BB00005612168212048612046FFF779FB94F8F0
:101BC0005C203F2191408160656584F8355084F840
:101BD0003450002070BD012070BD00002DE9F0419F
:101BE000044600F089FA06465CB1002584F83450BA
:101BF000022084F835002068016821F001010160AD
:101C00000DE00120BDE8F08100F076FA801B052888
:101C100005D920206065032084F83500F2E72068AC
:101C20000068C007F0D12268116820480140D4E95B
:101C300001031843D4E90336334318436369184357
:101C4000A3691843E3691843236A18430843616A88
:101C5000042903D1D4E90B13194308431060206809
:101C60004069666A20F0070130460E4301270428C8
:101C70000CD1A06A0643E06A40B12046FFF72CFB76
:101C800020B14020606584F83570BAE7206846616D
:101C90002046FFF70DFB94F85C203F2191408160C6
:101CA000656584F835700020ACE700003F8010F0D7
:101CB00070B5044600F020FA0546601C02D00448C6
:101CC0000078044400F018FA401BA042FAD370BD1B
:101CD000B80000202DE9F0412B4886B001680029AA
:101CE0004FD14FF00108C0F8008028480024016857
:101CF00041F0010101600068022500F0010005903B
:101D00004FF63F00CDE9000502AA03260C2782E822
:101D1000D00069461E4800F0FFF802AA694682E832
:101D2000D000CDE900851B4800F0F6F848F23310EA
:101D3000CDE9000502AA694682E8D000164800F005
:101D4000EBF84FF68370CDE9000502AA694682E8F8
:101D5000D000124800F0E0F84CF20370CDE9000525
:101D600002AA694682E8D0000D4800F0D5F860204C
:101D7000CDE9000502AA694682E8D000094800F0D2
:101D8000CBF806B0BDE8F081B00000203838024042
:101D900000140240000802400018024000100240F7
:101DA000000C0240000402402DE9F04FDFF838B18A
:101DB00000224FF001094FF00F0A00BF09FA02F4A8
:101DC00001EA0403A3427DD1066857000325BD4004
:101DD000AE430660D60800EB8606D6F820C057074B
:101DE0004FEAD7680AFA08F72CEA070CC6F820C0B1
:101DF0008668AE4386604668A6434660C468AC43C6
:101E0000C46022F003055D44D5F808789407260FD6
:101E10000AFA06F4DFF8D4C02740604502D14FF03B
:101E2000000C40E0DFF8C8C0604502D14FF0010C63
:101E300039E0DFF8C0C0604502D14FF0020C32E05B
:101E4000DFF8B4C0604502D14FF0030C2BE0DFF89F
:101E5000ACC0604502D14FF0040C24E0DFF8A0C014
:101E6000604502D14FF0050C1DE0DFF898C06045D9
:101E700002D14FF0060C16E0DFF88CC0604502D1AD
:101E80004FF0070C0FE0DFF884C0604502D14FF03F
:101E9000080C08E0DFF878C0604502D14FF0090C6B
:101EA00001E04FF00A0C0CFA06FCBC4516D1D5F83F
:101EB0000868A643C5F80868164C25689D43256048
:101EC000241D00E00AE025689D432560241D256847
:101ED0009D432560241D25689D432560521C102AC2
:101EE000FFF46CAFBDE8F08F00300140000002400D
:101EF0000004024000080240000C024000100240B2
:101F00000014024000180240001C02400020024061
:101F100000240240003C01402DE9F84FDFF890B169
:101F200000224FF001084FF0030A4FF00F090BF1A8
:101F3000040E00BF0B6808FA02F42340A3426ED1DE
:101F40004D68022D01D0122D0ED1D50800EB850C65
:101F5000DCF820505607F70E09FA07F6B5430E696C
:101F6000BE402E43CCF82060066855000F790AFA6F
:101F700005FC07F0030726EA0C06AF40374307606D
:101F80004E68012E05D0022E03D0112E01D0122E44
:101F90000ED18768CE6827EA0C07AE403E438660C4
:101FA0004668A6430C79C4F300149440344344605B
:101FB000C4688E6824EA0C04AE402643C6604C68B0
:101FC000E4006FD53B4C256845F4804525602468C6
:101FD00022F0030504F480440094374C2E19D6F8FF
:101FE000084895072F0F09FA07F5AC43334DA8426F
:101FF00001D100252EE0324DA84201D1012529E072
:10200000304DA84201D1022524E02F4DA84201D134
:1020100003251FE02D4DA84202D104251AE041E01E
:102020002B4DA84201D1052514E02A4DA84201D12B
:1020300006250FE0284DA84201D107250AE0274DCB
:10204000A84201D1082505E0254DA84201D1092566
:1020500000E00A25BD402543C6F80858DBF80040DB
:102060005D464E689C43F60300D51C432C60DEF8A9
:10207000004075464E689C43B60300D51C432C6057
:102080000B4D08352C684E689C43F60200D51C4366
:102090002C60074D0C352C684E689C43B60200D569
:1020A0001C432C60521C102AFFF444AFBDE8F88F8B
:1020B000003C014044380240003001400000024032
:1020C0000004024000080240000C024000100240E0
:1020D0000014024000180240001C02400020024090
:1020E000002402400069084000D0012070470AB176
:1020F000816170470904FBE7014880687047000070
:10210000B800002090F83D20202A01D0022070471E
:10211000242280F83D200268136823F00103136035
:102120000268536A23F0100353620268536A0B4338
:10213000536201680A6842F001020A60202180F8B7
:102140003D100020704790F83D20202A01D0022049
:102150007047242280F83D200268136823F00103B1
:10216000136003685A6A22F00F020A4391B259625F
:1021700001680A6842F001020A60202180F83D10DF
:102180000020704710B5040013D0242084F83D00CF
:102190002068016821F001010160204600F02EFA5C
:1021A0000020206484F83D0044F8300FA0732073B1
:1021B00010BD012010BD90F83D00704770B50400BF
:1021C00004D094F83D00002510B106E0012070BD58
:1021D00084F83C50204600F02FFA242084F83D007B
:1021E0002068016821F00101016000F02FFE3349F1
:1021F0002268B0FBF1F15160314A6368934206D91D
:102200004FF4967359434FF47A73B1FBF3F123689B
:10221000491C1962616891420BD84900B0FBF1F288
:10222000C2F30B02042A01D2042019E0B0FBF1F042
:1022300016E0A3689BB301EBC10202EB0112B0FBF5
:10224000F2F242F48042120530D04BB301EBC102EE
:1022500002EB0111B0FBF1F040F4804040F400408B
:102260002168C861D4E90701084321680860D4E9FE
:102270000310084321688860D4E9050108432168F8
:10228000C8602068016841F00101016025642020D8
:1022900084F83D00256384F83E50002070BD00E0C6
:1022A00006E001EB4102B0FBF2F2CCE70120D7E7F8
:1022B00001EB4101B0FBF1F0D0E7000040420F001C
:1022C000A08601002DE9FF4F83B09A46DDE9118712
:1022D00093460446DDF84090FFF70EFF054694F85C
:1022E0003D00202874D1192301227249204600950F
:1022F00001F073FD0028F5D194F83C00012867D067
:10230000012084F83C0020680168C90703D10168F6
:1023100041F0010101602068016821F40061016061
:10232000222084F83D00402084F83E0000262664E8
:10233000C4F82490A4F82A805F48E062608D20856C
:10234000CDE9007553465A462046049901F055FCE4
:1023500028B1206C84F83C60042843D076E0208DBE
:10236000C8B1012820D00228206823D041698069A3
:102370000090208D03286BD801282AD04F490228CD
:102380003B464FF0000200955BD08846204601F0A6
:1023900024FDE8BB40E02068416981690091016843
:1023A00041F40071016076E02068016821F48061E9
:1023B0000160F0E7016821F4806101602068016834
:1023C00041F400610160206841698069009062E029
:1023D0006EE02A463946204601F074FD30B1206C8B
:1023E000202833D0012007B0BDE8F08F206847E0F7
:1023F0002068016841F40071016020680169606A29
:10240000421C62620170208D401E2085608D00E0BC
:102410001CE0401E6085E9E72068016821F48061C6
:10242000016020680169606A421C62620170208D4F
:10243000401E2085608D401E60853B46002241463F
:102440000095204601F0C9FC0028D1D00320CAE73E
:102450002A463946204601F035FD0028BFD12068C4
:102460000169606A421C62620170208D401E2085F5
:10247000608D401E608520684169C94349070AD4C0
:102480000169606A421C62620170208D401E2085D5
:10249000608D401E6085208D00287FF46AAF20206B
:1024A00084F83D0084F83E6084F83C6000209AE7A0
:1024B000022098E7020010000000FFFF0400010066
:1024C0002DE9FF4F83B09A46DDE911879346044614
:1024D000DDF84090FFF710FE064694F83D002028F6
:1024E0007DD11923012243492046009601F075FC55
:1024F00000287CD194F83C00012878D0012084F891
:102500003C0020680168C90703D1016841F001015E
:1025100001602068016821F400610160212084F8D5
:102520003D00402084F83E0000252564C4F8249036
:10253000A4F82A803048E062608D2085CDE90076DD
:1025400053465A462046049901F0D0FB80B3206CD4
:1025500084F83C50042848D008E0324639462046EA
:1025600001F0E1FC30B1206C042839D0032007B021
:10257000BDE8F08F606A411C6162216800780861E3
:10258000208D401E80B22085618D491E61852168A5
:102590004A69D24352070BD468B1606A421C626236
:1025A00000780861208D401E2085608D401E60856A
:1025B000208D0028D1D132463946204601F0E6FB75
:1025C0000028D0D154F83D0B016841F4007101603E
:1025D000202004F81E09E57765770020C7E706E0AC
:1025E0002068016841F4007101600120BFE702200A
:1025F000BDE70000020010000000FFFF10B50068FA
:10260000094988420FD10948016821F4000101609D
:1026100041150748FFF7C8FBBDE810404FF4807133
:102620000448FFF7C1BB10BD005C004040380240C9
:102630000008024000000240F0B587B004461421B3
:102640006846FDF719FE1C492068884231D11B48B5
:102650000024016841F004010160016801F00401F7
:102660000591016841F0010101600068122500F048
:10267000010005904FF4007001268DE861000427E9
:10268000CDE9034769460E48FFF746FC30028DE866
:102690006100CDE9034769460A48FFF73DFC07485A
:1026A0001030016841F400010160006800F400008E
:1026B000059007B0F0BD0000005C004030380240DB
:1026C000000802400000024002488168027811447C
:1026D00081607047B80000200B4810B5016841F4D4
:1026E00000710160016841F480610160016841F49A
:1026F00080710160032000F0E5F9002000F006F889
:1027000000F09AF9002010BD003C024070B50D4D5C
:1027100004464FF47A712878B1FBF0F00A49096851
:10272000B1FBF0F001F040FA48B9102C07D20022BA
:102730002146501E00F0A6F900206C6070BD0120FB
:1027400070BD0000B8000020C40000202DE9F04159
:10275000044690F8A00016460F4601281DD001251A
:1027600084F8A050022084F8A10006EB860000EB5C
:10277000C60004EB800034223830FDF764FD324699
:102780003946204601F0BAFD2068456284F8A15020
:10279000002084F8A000BDE8F0810220FBE70000E3
:1027A00090F8A01001290ED0012100F8A01F0222EC
:1027B0004270064A136843F480331360417000216D
:1027C00001700846704702207047000018680140F9
:1027D00070B5040004D094F8A100002510B106E003
:1027E000012070BD84F8A050204600F06BF8022054
:1027F00084F8A1002068816921F070418161D4E9E9
:1028000001010843D4E903121143084321688A698E
:102810001043886121688A68294802408A60A18A39
:102820000A0421688B68A669334313438B602168CF
:10283000CA680240CA60A18B0B042168CA68266A74
:1028400032431A43CA6021680A6902400A61A18CB6
:1028500022680B041169A66A31431943116121688A
:102860004A6902404A61A08D010420684269236BD5
:102870001A430A43426194F835002168020294F831
:102880003600CB6A03F07F43CB622168CB6A94F8B1
:10289000346042EA004033430343CB622068416B1B
:1028A00041F0060141632068816941F001018161C5
:1028B000C4F8A450012084F8A100002070BD0000DD
:1028C00000F800F02DE9F04186B004461421684676
:1028D000FDF7D2FC5049206888427CD14F48002443
:1028E000016841F080610160006800F0806005903F
:1028F0004A481438016841F020010160016801F084
:1029000020010591016841F001010160016801F0B9
:1029100001010591016841F002010160016801F0C7
:1029200002010591016841F040010160016801F078
:1029300040010591016841F004010160016801F066
:1029400004010591016841F0080101600068022559
:1029500000F0080005904FF480600090CDE901542C
:102960000E26CDE9034669462D48FFF7D5FA41F614
:1029700058000090CDE90154CDE903466946294845
:10298000FFF7CAFA03200090CDE901540927DFF8C8
:102990009880CDE9034769464046FFF7BDFA4FF4FA
:1029A00070600090CDE90154CDE903466946404688
:1029B000FFF7B2FA4FF40C600090CDE90154DFF854
:1029C0006C80CDE9034669464046FFF7A5FA4FF40F
:1029D0009860009000E01CE0CDE90154CDE9034689
:1029E00069461348FFF798FA48200090CDE9015452
:1029F000CDE9034669460F48FFF78EFA4FF4A05021
:102A00000090CDE90154CDE9034769464046FFF700
:102A100083FA06B0BDE8F081006801404438024006
:102A2000001402400000024000040240001802406E
:102A300000080240000C02400B4882B0016841F4DB
:102A400080410160006800F4804000900648001F4B
:102A5000016841F080510160006800F080500090F2
:102A6000072002B000F02EB84438024000F01F02E8
:102A7000012191404009800000F1E020C0F80011E0
:102A800070470000F0B40E4B1B680C46C3F30223E2
:102A9000C3F10705042D00D90425191D072901D20A
:102AA000002300E0DB1E012606FA05F1491E214045
:102AB00099409E40761E16403143F0BC01F03CBF69
:102AC0000CED00E0064900F0070208684FF6FF032E
:102AD000184040EA0220034A104308607047000093
:102AE0000CED00E00000FA052DE9F84F04460068FF
:102AF000DFF804A2814F824DC1074FF001084FF06B
:102B0000000601D180073CD5CAF86860FFF7F4FAE7
:102B1000814605E0FFF7F0FAA0EB0900022878D81B
:102B200028680001F6D42078C107764805D061688E
:102B3000227A890141EA027101602178890711D561
:102B400001686268237B9201C1F3027142EA036269
:102B500042EA017101603868E16920F01F00491EF6
:102B600008433860CAF86880FFF7C6FA814605E076
:102B7000FFF7C2FAA0EB090002284AD82868000132
:102B8000F6D52068410701D400074CD5CAF870601B
:102B9000FFF7B2FA814605E0FFF7AEFAA0EB0900B5
:102BA000022836D82868C0438000F5D52078410730
:102BB000554814D501682269237D9201C1F3027141
:102BC00042EA036242EA017101603968226A6FF0E9
:102BD000FF0321F4F85103EB0222114339602178FD
:102BE000090710D501682269C1F30361920142EA25
:102BF0000161227E41EA027101603868616A20F455
:102C0000403008433860CAF87080FFF775FA07460D
:102C100005E048E0FFF770FAC01B022843D8286897
:102C2000C0438000F6D42078800653D53448403025
:102C3000016841F0805101600068344D00F080501F
:102C40000090286840F480702860FFF755FA074626
:102C500005E000BFFFF750FAC01B022823D8286800
:102C6000C005F7D5274D143D286810F4407020D0DA
:102C7000218D01F4407181421BD02868244920F441
:102C80004070C1F800800E6028602868C00710D02E
:102C9000FFF732FA064641F2883707E0FFF72CFAD1
:102CA000801BB84202D90320BDE8F88F286880074E
:102CB000F4D5A16A1248C1F301220830032A13D0C7
:102CC000016821F4F81101602868218DC1F30B011E
:102CD000084328602078C00604D50E4994F82C00DB
:102CE000C1F8E0010020DFE702680B4B22F4F81284
:102CF00019400A430260E7E7000047428C3802406F
:102D00000038024084380240883802400070004099
:102D1000400E474200104742FFFCFF0F2DE9F047ED
:102D20000E46050065D0DFF81481D8F80000F7B230
:102D300000F00F00B04207D288F80070D8F8000009
:102D400000F00F00B04254D128683D4C810712D5E5
:102D5000400703D5206840F4E05020602878000741
:102D600003D5206840F4604020602068A96820F006
:102D7000F000084320602878C0072DD030496868EB
:102D80000839012812D0022813D0032811D009686D
:102D9000890700292DDA216821F003010143216010
:102DA000FFF7AAF9814641F2883A0EE009688903E3
:102DB000EFE709688901ECE7FFF79EF9A0EB09014D
:102DC000514502D90320BDE8F0872068696800F00A
:102DD0000C00B0EB810FEFD1D8F80010404601F0A5
:102DE0000F01B14207D90770006800F00F00B04230
:102DF00001D00120E7E72878400705D52068E96879
:102E000020F4E050084320602878000706D52068A9
:102E1000296920F4604040EAC100206000F026F8F3
:102E20002168084AC1F30311515CC8400649086093
:102E30000020FFF76BFC0020C5E70000003C0240CB
:102E4000083802405E450108C400002004480549D6
:102E500000680968044AC1F38221515CC840704788
:102E6000C4000020083802406E450108154810B51E
:102E7000006810F00C02144813D04110042A0FD03F
:102E8000082A0ED10F4C241F2268236802F03F024B
:102E90005B0207D52068C0F38810A0FB010106E0A3
:102EA000084610BD2168C1F38811A1FB0001002371
:102EB000FDF798F92168C1F30141491C4900B0FBB5
:102EC000F1F010BD083802400024F4002DE9F84F5D
:102ED000050076D02878DFF8F8B2BE4CC00749D09C
:102EE000DBF800105846C1F38101012908D00068C1
:102EF000C0F3810002280AD1201D0068400206D5D7
:102F00002068800336D568680028E2D032E068681F
:102F1000B0F5803F10D0B0F5A02F206810D020F47D
:102F200080302060206820F4802020606868A0B194
:102F3000FFF7E2F806460CE0206840F48030F4E742
:102F400040F480202060F7E7FFF7D6F8801B642864
:102F500073D820688003F7D50CE0FFF7CDF806465C
:102F600005E000BFFFF7C8F8801B6428F0D8206890
:102F70008003F7D42878DFF8608280074FF00009DB
:102F80003ED5DBF80010584611F00C0F09D0006850
:102F9000C0F3810002280BD18D48001F0068400259
:102FA00006D42068800715D5E868012809D111E00A
:102FB000E868B8B10120C8F80000FFF79DF80646A0
:102FC00005E002E1FFF798F8801B0228C0D82068CE
:102FD0008007F7D52068296920F0F80040EAC10091
:102FE00020600DE0C8F80090FFF786F8064604E080
:102FF000FFF782F8801B02281FD820688007F7D4CB
:103000002878000722D5724E744869696C3671B110
:1030100001210160FFF770F8074604E0FFF76CF844
:10302000C01B022809D830688007F7D50EE0C0F829
:103030000090FFF761F8074605E083E0FFF75CF8D2
:10304000C01B02287ED830688007F7D42878400754
:1030500068D5DFF87CA100270AF1380ADAF8000009
:10306000C0000BD4DAF8001041F08051CAF800100B
:10307000DAF80000012700F080500090584E3068C8
:10308000C00510D4306840F480703060FFF734F829
:10309000009005E0FFF730F80099401A022851D857
:1030A0003068C005F6D54A4EA868683601280FD0AA
:1030B0000528306810D020F001003060306820F022
:1030C00004003060A868B8B1FFF716F800900FE070
:1030D000306840F00100F4E740F004003060F7E7AA
:1030E000FFF70AF80099411A41F28830814264D80A
:1030F00030688007F4D50EE0FEF7FEFF009007E091
:10310000FEF7FAFF0099411A41F28830814254D803
:1031100030688007F4D42FB1DAF8001021F0805124
:10312000CAF80010A869C0B3DBF80010C1F3810130
:1031300002294AD00228484607D0C8F86000FEF7A6
:10314000DBFF00E039E005463AE04746C8F860009A
:10315000FEF7D2FF064604E0FEF7CEFF801B0228F2
:103160002BD820688001F7D4D5E907010843A96A64
:103170001C4A490802EB01416A6A41EA821108438C
:1031800095F82C1040EA01611148001F01600120F0
:103190003866FEF7B1FF054605E014E0FEF7ACFF28
:1031A000401B022809D820688001F7D50BE000BF3A
:1031B000FEF7A2FF401B022802D90320BDE8F88FCA
:1031C00020688001F4D40020F8E70120F6E7000031
:1031D000083802400038024000004742800E474253
:1031E000007000400000FFFF10B500680B4641680A
:1031F0000D480140080CD870C1F304245C7001F044
:103200003F049C70C1F34231197052B901F0A5FB23
:10321000D870587801F0A1FB5870987801F09DFBA8
:103220009870002010BD00003FFFFF0010B50B4656
:103230000168896A596001680969C1F30E019960E2
:10324000006801680E480140C1F305401870C1F3E1
:1032500006245C7001F07F049C70402404EA114154
:10326000D97052B901F079FB1870587801F075FBEC
:103270005870987801F071FB9870002010BD000024
:103280007F7F7F0070B5040002D0607F10B106E040
:10329000012070BD00202077204600F049F8022070
:1032A00060772168CA20486221685320486220461E
:1032B00001F068FBFF25042618BB206881681B4AC3
:1032C000114081602168886862681043D4E9042352
:1032D0001A43104388602168E0680861206801692A
:1032E000228941EA024101612068C16821F0800120
:1032F000C16020688068800607D4204600F000F98D
:1033000018B1206845626677C2E72068016C21F435
:10331000802101642068016CA26911430164206866
:10332000456201206077002070BD0000BFFF8FFF65
:1033300000680349884202D10249012008607047B1
:10334000002800403C0E47422DE9F0470446007F2C
:103350000B4601281FD04FF0010984F81C90022071
:103360006077DAB19878D97840EA014558781978C9
:10337000000240EA413005432168CA2048622168C2
:1033800053204862204601F0FDFA0026FF274FF047
:10339000040860BB1AE00220BDE8F0875878C10637
:1033A00003D500F0EF000A305870D87801F0DEFA4B
:1033B0000204587801F0DAFA42EA0022987801F023
:1033C000D5FA0243187842EA4035D5E70F48054060
:1033D000206845602068C16821F08001C1602068D4
:1033E000806880060AD4204600F08AF830B1206850
:1033F000476284F81D8026770120CDE72068476268
:1034000084F81D9026770020C6E700003FFFFF00EC
:103410002DE9F0470446007F0D46012811D04FF0FA
:10342000010A84F81CA002206077206800268068CA
:103430004FEA406042B100281ADA287801F08DFA8C
:1034400017E00220BDE8F087002800DBEE70287846
:1034500001F08CFA0204687801F088FA42EA00224E
:10346000A87801F083FA0243E87842EA00470AE0CC
:10347000EE70A878297840EA01476878E978000278
:1034800040EA014007432168CA204862216853206E
:103490004862204601F076FA4FF0FF084FF0040929
:1034A000E0B916480740206807602068816821F469
:1034B00080218160D5E90301084321688A681043AF
:1034C00088602068C16821F08001C1602068806840
:1034D00080060BD4204600F013F838B12168C1F8FB
:1034E000248084F81D9026770120ABE72168C1F87D
:1034F000248084F81DA026770020A3E77F7F7F002B
:1035000070B504460068C16821F0A001C160FEF7F3
:10351000F3FD05464FF47A7607E000BFFEF7ECFDB9
:10352000401BB04201D9032070BD2068C0688006EE
:10353000F4D5002070BD70B50D46040003D094F89A
:103540002C0010B107E0012070BD002084F82D0090
:10355000204600F011F8022084F82C00211D20687C
:10356000FDF741FFD4E900022946FDF78FFF012056
:1035700084F82C00002070BDFEF7ACBB10B50446EB
:1035800090F82C00022809D0022084F82C00206832
:10359000FDF751FF012084F82C00002010BD000031
:1035A00070B5044690F82C000D4602280DD002207C
:1035B00084F82C002068FDF744FF2868022805D015
:1035C0005FF0010084F82C00002070BD0520F9E7B1
:1035D00010B5040011D0022084F851002068016861
:1035E00021F040010160204600F04CF800206065A9
:1035F00084F8510084F8500010BD012010BD90F8EF
:103600005100704770B5040005D00025A56294F8FC
:10361000510010B106E0012070BD84F850502046E2
:1036200000F046F8022084F851002068016821F07B
:1036300040010160D4E901010843D4E903121143B8
:10364000084361690843218B01F400710843E16973
:103650000843216A0843A16A084321680860A069F9
:10366000042101EA1040616A08432168486020682B
:10367000C16921F40061C1616565012084F85100D0
:10368000002070BD00680749884209D106480168DA
:1036900021F4801101604FF460710448FEF784BB8F
:1036A00070470000005001404438024000140240BE
:1036B00010B586B0044614216846FCF7DDFD1349B9
:1036C0002068884220D112480021026842F480120A
:1036D0000260006800F4801005900D4814380268FC
:1036E00042F020020260006800F0200005904FF4D4
:1036F000607000900220CDE901010520CDE90310A2
:1037000069460448FEF708FC06B010BD00500140B1
:1037100044380240001402402DE9F84F0446406846
:103720000026984617460D464FF00409B0F5827FF3
:1037300001D1A06890B194F85000012819D04FF041
:10374000010B84F850B0FEF7D7FC009094F85100BC
:103750004FF0000A01280ED002267FE084F8519035
:1037600013460A462046CDF8008000F031F9BDE846
:10377000F88F0220FBE7002D6FD0002F6DD084F86A
:103780005190C4F854A0A563A787E787C4F830A078
:10379000A4F834A0A4F836A0C4F840A0C4F844A00B
:1037A000A0684FF40047B84204D12068016821F4B2
:1037B0008041016020680168490603D4016841F036
:1037C00040010160E068B8B133E020688168C90752
:1037D00006D0007B05F8010BE08F401EE0870BE070
:1037E000B8F1000F23D0B8F1FF3F05D0FEF784FCFD
:1037F0000099411A41451AD2E08F0028E5D11BE01B
:1038000020688168C90706D0C06825F8020BE08FE0
:10381000401EE0870DE0B8F1000F08D0B8F1FF3F7F
:1038200007D0FEF769FC0099411A414501D30326F0
:1038300014E0E08F0028E3D16068B0F5827F0AD100
:10384000A068B84202D0B0F5806F04D1206801684A
:1038500021F040010160606D00B1012684F851B093
:1038600084F850A0304682E72DE9F84F044690F8DE
:1038700050000026994617460D4601280DD04FF0FE
:10388000010B84F850B0FEF737FC804694F85100E5
:10389000B246012804D0022694E00220BDE8F88F49
:1038A000002D7BD0002F79D0032084F85100C4F87C
:1038B00054A02563A786E786C4F838A0A4F83CA0E6
:1038C000A4F83EA0C4F844A0C4F840A0A068B0F595
:1038D000004F04D12068016841F4804101602068F4
:1038E0000168490603D4016841F040010160E068C5
:1038F000B0F5006F606804D030B3E08E012823D0AB
:103900003EE010B1E08E01281AD135F8021B206884
:1039100005E020688168890706D535F8021BC1607B
:10392000E08E401EE0860BE0B9F1000F34D0B9F113
:10393000FF3F05D0FEF7E0FBA0EB080149452BD285
:10394000E08E0028E5D11EE0216815F8010B087310
:1039500006E020688168890706D515F8011B017308
:10396000E08E401EE0860BE0B9F1000F14D0B9F1F3
:10397000FF3F05D0FEF7C0FBA0EB080149450BD285
:10398000E08E0028E5D14B46012202212046CDF8E9
:10399000008001F055F810B1032613E011E0424613
:1039A0004946204601F03CF818B101262020606508
:1039B00008E0A06818B92068C16880680090606D50
:1039C00000B1012684F851B084F850A0304665E774
:1039D0002DE9F84F044690F8500000260A9F9A46B9
:1039E00093460D464FF0010801280ED0012084F8BF
:1039F0005000FEF781FB814694F851006168012870
:103A00000CD0B1F5827F07D102E00220BDE8F88F2B
:103A1000A16809B9042801D00226BDE055B1BBF167
:103A2000000F07D0BAF1000F04D094F8510001281C
:103A300002D004E00126AFE0052084F85100002008
:103A40006065C4F838B0A4F83EA0A4F83CA0256393
:103A5000A4F836A0A4F834A020646064206801684B
:103A6000490603D4016841F040010160E068B0F507
:103A7000006F606804D0E8B3E08E01283BD06AE0B4
:103A800010B1E08E01282ED1216835F8020BC860F4
:103A9000E08E401EE08626E0B8F1000F0DD0E08EEB
:103AA00058B120688168890707D535F8021BC160C5
:103AB000E08E401EE0864FF00008E08F58B120688D
:103AC0008168C90707D0C0682BF8020BE08F401E41
:103AD000E0874FF00108781C05D0FEF70DFBA0EB46
:103AE0000900B84246D2E08E0028D5D1E08F0028E8
:103AF000D2D136E0FFE7216815F8010B0873E08E9C
:103B0000401EE08627E000BFB8F1000F0DD0E08E28
:103B100058B120688168890707D515F8011B017322
:103B2000E08E401EE0864FF00008E08F58B120681C
:103B30008168C90707D0C0680BF8010BE08F401EF1
:103B4000E0874FF00108781C05D0FEF7D5FAA0EB0E
:103B50000900B8420ED2E08E0028D5D1E08F0028AF
:103B6000D2D13B46012202212046CDF8009000F040
:103B700067FF08B103260FE04A463946204600F0A9
:103B80004FFF18B101262020606505E0A06818B934
:103B90002068C16880680090012084F851000020EE
:103BA00084F85000304631E710B5401EB0F1807FF8
:103BB00001D3012010BD4FF0E02460610F21601798
:103BC00000F0BAFE0020A06107202061002010BD97
:103BD000FEE701684A69D24352050CD46FF4806253
:103BE0004A6104210164002140F8301F2022427301
:103BF000017301207047002070472DE9F84F0446FB
:103C0000006889460B9D01689846174641F480611B
:103C100001602068016841F48071016000954FF0F7
:103C2000011A0022514620460A9B00F0D6F8F0BB4C
:103C3000216809F0FE0008610AF1010B2B46594684
:103C400020460A9A00F0FAF818B1206C042812D025
:103C50003AE020684169806900902A4620460A9926
:103C600000F061F950B1206C04282DD12068016862
:103C700041F4007101600120BDE8F88FFEB2B8F197
:103C8000010F09D02168380A08612A4620460A999E
:103C900000F049F90028E6D1206806612A4620464E
:103CA0000A9900F040F90028DDD1206800E00BE01F
:103CB000016841F480710160009500225146204660
:103CC0000A9B00F08AF808B10320D5E7216809F0C3
:103CD000FF0040F0010008612B46594620460A9A31
:103CE00000F0ACF80028B0D1C6E700002DE9F84399
:103CF000044600680D46DDE90897016898461646B7
:103D000041F4807101604B4600224FF001112046C2
:103D1000009700F062F8E8B9216805F0FE0008613C
:103D20003B464A461849204600F088F828B1206CE6
:103D300004280FD10120BDE8F8832068416980691B
:103D400000903A464946204600F0EDF820B1206C3C
:103D5000042813D00320EEE7F5B2B8F1010F09D023
:103D60002168300A08613A464946204600F0DBF8EF
:103D70000028ECD1206805610020DCE7206801689C
:103D800041F400710160D5E70200010070B51646EC
:103D90000D4604461AE02046FFF71BFF08B101203C
:103DA00070BD681C12D025B1FEF7A6F9801BA84291
:103DB0000CD954F8400F40F0200044F810090020BE
:103DC0002060202161732073032070BD206840694A
:103DD000C0434007DFD4002070BD2DE9F0471E46E8
:103DE00090460D460446C1F30747DDF8209012E0E7
:103DF000701C10D02EB1FEF77FF9A0EB0900B04285
:103E000009D9002044F8300F20216173A07320737A
:103E10000320BDE8F0872068012F0AD0806925EAD9
:103E200000000004000C06D000214145E0D0002035
:103E3000EFE74069F3E70121F7E700002DE9F047DC
:103E40009A4691460D46044600264FF02008C1F3DD
:103E500007472AE020684069C043400512D4206823
:103E6000016841F40071016021686FF4806048616D
:103E700004202064266384F83D8084F83C6001209F
:103E8000BDE8F087B9F1FF3F0FD0B9F1000F05D0C1
:103E9000FEF732F9A0EB0A01494506D944F8306F24
:103EA00084F80D8026730320EAE72068012F07D0ED
:103EB000D0F8180025EA00000004000CE0D0C9E7A3
:103EC0004069F7E72DE9F041002590460E4604468B
:103ED000202721E04069C043C0060CD421686FF060
:103EE000100048612564256384F83D7084F83C50D7
:103EF0000120BDE8F0812EB1FEF7FEF8A0EB08002E
:103F0000B04209D954F8400F40F0200044F80409A9
:103F1000677025700320ECE720684169C9434906B2
:103F2000D8D40020E5E770B516460D4604461AE0E1
:103F30002046FFF74EFE08B1012070BD681C12D06C
:103F400025B1FEF7D9F8801BA8420CD954F8400FD0
:103F500040F0200044F81009002020602021617307
:103F60002073032070BD20684069C0430006DFD481
:103F7000002070BD10B50348FEF704F9BDE81040FD
:103F800000F002B8C800002010B50E48FEF713F983
:103F9000002815D10B480C494FF4804201600B49B1
:103FA000416000218160C0E9031241618161C1610A
:103FB000016200F00DF8BDE810400248FEF7FEB8BF
:103FC00010BD0000C8000020005C0040A086010079
:103FD00000B50068284987B088424AD127480021A7
:103FE000026842F004020260026802F004020592D4
:103FF000026842F001020260006800F001000590D2
:104000004FF4807000901220CDE90101022003904E
:104010000420049069461A48FDF77EFF4FF40070B3
:10402000009069461748FDF777FF14481030016883
:1040300041F400010160006800F4000005900F48A1
:104040001038016841F400010160016821F40001A9
:10405000016000220F214820FEF714FD4820FEF7E2
:1040600005FD00220F214920FEF70CFD4920FEF737
:10407000FDFC07B000BD0000005C0040303802408D
:104080000000024000080240FDF712BE104800B5D3
:10409000026887B0002142F001020260006800F06F
:1040A000010005904FF4004000900120CDE902018D
:1040B0000848019069460848FDF72EFF00220F21AD
:1040C0002820FEF7DFFC2820FEF7D0FC07B000BD5B
:1040D000303802400000211000000240FFF754BFBA
:1040E0001FB50A4601460020084C8DF80C0001233C
:1040F000A46803A88DE819000548FEF7E3F808B1A5
:10410000FFF738FF9DF80C0004B010BD0000002040
:10411000C80000203EB514460A460146074880689C
:104120000094CDE9013001230548FEF7CBF80028C3
:1041300002D0FFF71FFF01203EBD0000000000205D
:10414000C80000201FB51346084C0A468DF80C30F5
:104150000146A468012303A88DE819000448FEF76E
:10416000AFF9002801D0FFF705FF1FBD00000020B8
:10417000C8000020FDF79CBD2DE9F041244886B021
:104180000178002940D1234C0125057020680026C4
:1041900040F0080020602068022700F00800059029
:1041A00068038DE8E100DFF8708069464046FDF75E
:1041B000B3FE206840F0080020602068694600F0E7
:1041C00008000590A0148DE8E1004046FDF7A4FE2C
:1041D000206840F0040020602068104C00F00400CB
:1041E000059004208DE8E10069462046FDF794FE25
:1041F000002204212046FDF77AFF012204212046F7
:10420000FDF775FF00F072FC06B0BDE8F08100001C
:104210000000002030380240000C0240000802403C
:104220002DE9F843154D0C46074600220421284687
:10423000FDF75DFFDFF848804FF40056002231465D
:104240004046FDF754FF384600F09EFC0D482246DC
:104250006946C3680C48FFF75FFA08B100F03CFC00
:10426000012231464046009CFDF741FF0122042116
:104270002846FDF73CFF2046BDE8F88300080240D1
:10428000000C0240000000201C01002070B5054613
:10429000012251030948FDF72AFF094C002204219D
:1042A0002046FDF724FF284600F06EFC2046BDE8BE
:1042B000704001220421FDF71ABF0000000C0240EB
:1042C0000008024070B5054600224FF4005109482D
:1042D000FDF70DFF084C002204212046FDF707FFE3
:1042E000284600F051FC2046BDE870400122042120
:1042F000FDF7FDBE000C024000080240F0B5036867
:104300008C88DD68C5F30B452C442504882404EB18
:10431000C2141E5906F470461E5103680F68DE6809
:10432000C6F30B46761C3E442E431E5104688B890F
:10433000E568C5F30A052B441D048C2303EBC21367
:10434000E65806F47046E65004688F68E668C6F3DF
:104350000A06761C3E442E43E6509423046803EB81
:10436000C213E55825F00705E55005680C69EC50C7
:1043700091F831300C7E1F0226069C24056804EB60
:10438000C21491F8323055F804C04FF0000C45F8D3
:1043900004C091F8305046EA03433D431D4303688F
:1043A0001D519823046803EBC213E55825F0FF055F
:1043B000E55005684C69EC50A023046803EBC21378
:1043C000E55840F20776B543E550D1E907452C435F
:1043D0000568EC50AC23046803EBC213E55844F8BD
:1043E00003C005684C6AEC500B698BB3012B32D0CB
:1043F000042B32D0022B30D0032B2ED0072B2CD005
:104400000123B024056804EBC2142E5906F0E026FF
:104410002E51D1E90065AD1B0E8D5D435E43ED1C51
:1044200045EA064305682B51B423046803EBC21325
:10443000E5586FF30A05E5500468C96AE150006861
:10444000842101EBC211425842F001024250F0BDFA
:10445000FFE70423D5E70323D3E70223D1E70000D6
:104460001FB500211448009101910291114A039156
:10447000C0E9002181608161104A0162C0E90A211E
:104480000124C0E90314C46144610163FDF71BF911
:1044900008B1FCF7A7FF0520CDE900040620029033
:1044A00069460548FDF762F8002801D0FCF79AFF3D
:1044B0001FBD000000200140C40300200100000FC8
:1044C0000F4810B50D49016000210222C0E9011218
:1044D000C160C0E90A1201634163FDF771FA08B1D6
:1044E000FCF780FF01210648FDF716FA002803D0EB
:1044F000BDE81040FCF776BF10BD000000B00240E0
:104500000C04002000B5134887B011490160012157
:104510000022C0E901120421C16010214023C0E93A
:1045200004138023C0E90632026242628262009173
:104530000191029103910491059106916946FEF75C
:10454000FAFF002801D0FCF74DFF07B000BD0000C6
:10455000400100A04C0400202DE9F04F87B0142149
:104560006846FBF789FE6D480024016841F01001A0
:104570000160016801F010010591016841F004013A
:104580000160016801F004010591016841F020011A
:104590000160016801F020010591016841F080018E
:1045A0000160016801F080010591016841F001019D
:1045B0000160016801F001010591016841F002010B
:1045C0000160016801F002010591016841F04001BC
:1045D0000160016801F040010591016841F00801A6
:1045E000016000684E4E00F00800059000223C215A
:1045F0003046FDF77CFDDFF82C910022162148465D
:10460000FDF775FD002280214748FDF770FDDFF8BA
:104610001CA14FF44057002239465046FDF767FD74
:10462000DFF80CB146F20C08002241465846FDF76F
:104630005EFD3C2000900125CDE9015469463046DD
:104640000394FDF769FC16200090CDE901546946FA
:1046500048460394FDF760FC364E48F20700CDE96A
:104660000006694602943048FDF756FC8020009011
:10467000CDE9015469462C480394FDF74DFC2020F8
:10468000CDE90006694602944846FDF745FC042042
:10469000CDE90004DFF8A090694648460294FDF792
:1046A0003BFC4FF4504000900226CDE901640C2001
:1046B000CDE9034069464846FDF72EFC6803CDE985
:1046C0000004694648460294FDF726FCE802CDE95D
:1046D0000004694650460294FDF71EFC0097CDE9A0
:1046E0000154694650460394FDF716FCCDF800804E
:1046F000CDE90154694658460394FDF70DFCF810C6
:10470000CDE900060320CDE9024007200490694668
:104710000548FDF701FC07B0BDE8F08F30380240D6
:10472000001002400008024000000240000C02405D
:10473000001802400000121000040240144810B596
:10474000124901601349416000214FF480428160A9
:10475000C0E9031241618161C1610162FDF72EFD73
:1047600008B1FCF73FFE00210948FDF7CBFC08B17A
:10477000FCF738FE00210648FDF7E5FC002803D0D1
:10478000BDE81040FCF72EBE10BD0000005C0040EC
:1047900080040020A086010070B59AB034216846DC
:1047A000FBF76AFD34210DA8FBF766FD2F482E4963
:1047B0000024C0E9001484600721C460C0E90441FA
:1047C000032181610E210525C0E907154FF4A7716A
:1047D0004162F52181624FF4AA71C162F721016340
:1047E00080F8344080F8354080F83640FDF7F0FF1F
:1047F00008B1FCF7F7FD019402944FF48066CDE90F
:104800000646039404940094CDE908548DF8304092
:1048100005948DF831400A940B948DF832400022B3
:1048200069461248FDF792FF08B1FCF7DBFD0D94D5
:104830000E940F94109411941294CDE91346CDE97F
:1048400015548DF864408DF86540179418948DF8D0
:10485000664001220DA90548FDF778FF002801D028
:10486000FCF7C0FD1AB070BD00680140D404002000
:1048700010B586B014216846FBF7FEFC1B480024E7
:1048800019490594C0E900147F218160FF21C0E926
:10489000031444618461FEF7F5FC08B1FCF7A2FD46
:1048A0008DF800408DF801408DF8024003940022FD
:1048B00069460E480494FEF7ABFD08B1FCF792FD83
:1048C00001208DF814008DF815008DF816008DF874
:1048D0001740002205A90548FEF736FD002801D043
:1048E000FCF780FD06B010BD002800407C050020CC
:1048F0000F4810B50D4901604FF4827141600021ED
:104900008160C1604FF400720161C0E90512C161AC
:104910000162416281620A21C162FEF773FE0028D2
:1049200003D0BDE81040FCF75DBD10BD0050014054
:104930009C050020FEE770470907090E002806DAEB
:1049400000F00F0000F1E02080F8141D704700F126
:10495000E02080F8001470477047010901EB8101E5
:1049600000F00F0000EB4100C0B27047002102E0F0
:104970000A38C0B2491C0A28FAD2090740EA116075
:104980007047000070B504460068C168490614D439
:104990004FF0FF31C160FDF7AFFB05464FF47A766B
:1049A00007E000BFFDF7A8FB401BB04201D9032080
:1049B00070BD2068C0684006F4D5002070BD0000BE
:1049C000F8B5164605460C4600220F48FEF72EFCA9
:1049D000002231460C48FEF707FCA078009063786F
:1049E000227805F12D0009A1044600F063F90B4877
:1049F000FCF71EFA01B02246BDE8F0400123002179
:104A00000846FBF759BF00007C05002025303264C2
:104A10003A253032643A2530326400002800002004
:104A200038B50B46009204460022802100F008F8B9
:104A3000002804D0606D40F020006065032038BD80
:104A40002DE9F0411D4617460E460446DDF8188054
:104A500035E0681C33D02DB1FDF74EFBA0EB08000C
:104A6000A8422CD32068416821F0E00141606068D1
:104A7000B0F5827F0BD1A068B0F5004F02D0B0F541
:104A8000806F04D12068016821F040010160A06AB4
:104A9000B0F5005F0AD1206801684DF6FF72114041
:104AA00001602068016841F400510160012084F830
:104AB0005100002084F850000320BDE8F0812068F8
:104AC000806836EA000004D00020B842C1D100203E
:104AD000F3E70120F9E7000010B50348FEF778FD81
:104AE000BDE8104000F002B81C01002000B587B0FE
:104AF0002148FEF784FD00283BD11F481F49016073
:104B00001821C16100218160416107220161C0E972
:104B10000A12C1604FF400720162826141624FF477
:104B2000827141601648016841F48011016000689B
:104B300000F48010059012481438016841F02001FB
:104B400001600068694600F0200005904FF4607035
:104B50000090022001900290012003900520049013
:104B60000848FDF7D9F907B003485DF804EBFEF7F4
:104B700049BD07B000BD00001C01002000500140ED
:104B8000443802400014024001B50648012269463B
:104B9000C3680548FEF768FE002801D0FFF79CFFB8
:104BA00008BD0000000000201C0100207047FDF738
:104BB0008BBD000030B59FB030216846FBF75CFB31
:104BC000142118A8FBF758FB30210CA8FBF754FB65
:104BD00020480025016841F080510160006800F024
:104BE00080501D901C48016841F4404101600068FC
:104BF000022400F440401D90092000904FF48030C2
:104C000001900120CDE9050480050790042008905B
:104C1000A820CDE9090407200B906846FEF756F955
:104C200018A90F2081E831004FF4A0501B901C9070
:104C3000052118A8FEF772F828200C90D8201090B3
:104C400012942002CDE915500CA8FDF74DFF1FB0BE
:104C500030BD00004038024000700040104801683C
:104C600041F4700101600F48016841F001010160E9
:104C70000C4A00210832116002680B4B1A40026096
:104C8000031D0A4A1A60026822F480220260054865
:104C90000C300160024958068039086070470000F6
:104CA00088ED00E000380240FFFFF6FE10300024DF
:104CB000FEE700000FB4084B10B504A902AA039840
:104CC00000F01CF8044602A9002000F0B8F92046C4
:104CD00010BC5DF814FB00003F50000802E008C85B
:104CE000121F08C1002AFAD170477047002001E066
:104CF00001C1121F002AFBD1704700002DE9FF4FB0
:104D00008BB088460546002606E025280BD0DDE955
:104D10000D1290476D1C761C28780028F5D10FB035
:104D20003046BDE8F08F0024A146A2460122AE49DC
:104D300000E0044315F8013F203B02FA03F008426B
:104D4000F7D128782A2810D06FF02F022878A0F108
:104D50003001092915D809EB890102EB410144F022
:104D6000020400EB01096D1CF0E758F8041B5FEA30
:104D7000010903D544F40054C9F1000944F00204C8
:104D80006D1C28782E2817D115F8010F44F0040463
:104D90002A280ED06FF02F022878A0F130010929BF
:104DA0000AD80AEB8A0102EB410100EB010A6D1CF3
:104DB000F2E758F804AB6D1C28786C280FD006DC9D
:104DC0004C2817D068280DD06A2814D104E0742824
:104DD00010D07A280FD10DE044F400140AE044F416
:104DE000801401E044F440146978814202D104F552
:104DF00080146D1C6D1C2878692865D006DC00289D
:104E00008DD0632827D0642806D15DE06E2808D0B5
:104E100073282AD0752877D0DDE90D129047761CCB
:104E2000E0E0C4F30250022809D003280DD0D8F8DE
:104E3000001004280DD00E6008F10408D2E0D8F864
:104E40000010F217C1E90062F6E7D8F800100E80F2
:104E5000F2E70E70F0E718F8041B8DF80010002040
:104E60008DF80100EB46012003E058F804BB4FF039
:104E7000FF3061074FF0000701D40AE07F1C57455F
:104E80000DDA8742FADB1BF807100029F6D106E09D
:104E90007F1C8742FCDB1BF807100029F8D1DDE9F5
:104EA0000D23A9EB07008146214600F0B1F83044FC
:104EB000C61904E0DDE90D121BF8010B90477F1EB7
:104EC000F8D22146484688E058F8040BC4F3025152
:104ED0004FF00A0B032900D100B2042900D140B2DF
:104EE000002802DA40422D2102E0210505D52B21C0
:104EF0008DF82410012104E006E0E10710D0202104
:104F0000F6E708AF089113E058F8040BC4F3025118
:104F10004FF00A0B032900D180B2042900D1C0B29E
:104F20000021EEE75946FBF705FB303107F8011D7C
:104F30000028F7D1ADEB070000F1200B600702D588
:104F400024F4803401E04FF0010ADA4502DDAAEBD7
:104F50000B0000E00020824600EB0B0108980144A2
:104F6000A9EB01000A90E00306D4DDE90D232146F8
:104F70000A9800F04DF806444FF0000908E009A92E
:104F800011F80900DDE90D12904709F10109761CBD
:104F900008998945F3DBE0030CD5DDE90D232146B3
:104FA0000A9800F035F8064404E0DDE90D123020DF
:104FB0009047761CBAF10001AAF1010AF5DC05E080
:104FC000DDE90D1217F8010B9047761CBBF10001CB
:104FD000ABF1010BF4DC0A982146DDE90D2300F06A
:104FE00005F806446D1C97E6092801002DE9F041FB
:104FF000044600251E461746880404D405E03946B9
:105000002020B0476D1C641EF9D52846BDE8F0810C
:105010002DE9F041044600251E469046C80301D5FF
:10502000302700E02027880404D505E041463846B3
:10503000B0476D1C641EF9D52846BDE8F0810A68AA
:10504000531C0B60107070472DE9F04385B00426A7
:10505000002401250096DFF84C80CDE90145694622
:1050600040460394FCF758FF0E4F0820183738606D
:105070000120FCF71DFE04214046FDF733F8814670
:10508000E80438600120FCF713FECDE90065CDE9A6
:10509000025469464046FCF73FFF05B04846BDE86C
:1050A000F08300000018024010B50178012929D0D2
:1050B000002101704FF0FF30FBF7C8FE0422782179
:1050C0000A20FBF7CFFC04228C210A20FBF7CAFC44
:1050D0000422A0210A20FBF7C5FC0422B4210A20E7
:1050E000FBF7C0FC0422C8210A20FBF7BBFC04220A
:1050F000DC210A20FBF7B6FCBDE810404FF07F40F2
:10510000FBF7A4BE0221D4E72DE9F041174604467F
:105110001E460D4600223048FEF788F80022394628
:105120002D48FEF761F82B780020C3EB4317C7EB3F
:10513000032300EB03126B780146C3EB031302EB6E
:105140008302AB78012E1A4402D0022E1CD039E023
:10515000E378C3EB4315C5EB032300EB031023797E
:10516000C3EB031300EB830063791844A379C3EB0B
:105170004315C5EB032301EB0311E379C3EB0313E1
:1051800001EB8301237A1AE0637AC3EB4315C5EB85
:10519000032300EB0310A37AC3EB031300EB83009C
:1051A000E37A1844237BC3EB4315C5EB032301EBE0
:1051B0000311637BC3EB031301EB8301A37B19444E
:1051C000814206DB824204DB8A4202DA0120BDE82A
:1051D000F0810020FBE700007C05002010B50A4CA0
:1051E0004FF4802020600120FCF762FD0820206041
:1051F0000120FCF75DFD4FF400202060BDE8104069
:105200000120FCF755BD00001818024010B5094CEC
:10521000042020600120FCF74BFD082020600120C5
:10522000FCF746FD4FF400202060BDE8104001204F
:10523000FCF73EBD1818024001780022012371B12D
:1052400001290FD0022909D14178022917D0032959
:1052500015D0042913D0052911D0037070470370AD
:1052600042707047022101704178022905D003295C
:1052700003D0042901D00529F3D1827070478178C9
:105280000229FAD0491C817070472820FFF71AB80C
:105290002920FFF717B84FF4A0707047F02070472F
:1052A00010B5FEF769FFCA20FFF70CF8C320FEF720
:1052B000EDFF0820FEF7EAFF5020FEF7E7FFCF20C2
:1052C000FFF700F80020FEF7E1FFC120FEF7DEFF48
:1052D0003020FEF7DBFFED20FEF7F4FF6420FEF741
:1052E000D5FF0320FEF7D2FF1220FEF7CFFF81206B
:1052F000FEF7CCFFE820FEF7E5FF8520FEF7C6FFAE
:105300000020FEF7C3FF7820FEF7C0FFCB20FEF79A
:10531000D9FF3920FEF7BAFF2C20FEF7B7FF002097
:10532000FEF7B4FF3420FEF7B1FF0220FEF7AEFF18
:10533000F720FEF7C7FF2020FEF7A8FFEA20FEF7C0
:10534000C1FF0020FEF7A2FF0020FEF79FFFB12063
:10535000FEF7B8FF0020FEF799FF1B20FEF796FF2F
:10536000B620FEF7AFFF0A20FEF790FFA220FEF75F
:105370008DFFC020FEF7A6FF1020FEF787FFC1209B
:10538000FEF7A0FF1020FEF781FFC520FEF79AFF71
:105390004520FEF77BFF1520FEF778FFC720FEF7BC
:1053A00091FF9020FEF772FF3620FEF78BFFC8209A
:1053B000FEF76CFFF220FEF785FF0020FEF766FF88
:1053C000B020FEF77FFFC220FEF760FFB620FEF799
:1053D00079FF0A20FEF75AFFA720FEF757FF272084
:1053E000FEF754FF0420FEF751FF2A20FEF76AFF64
:1053F0000020FEF74BFF0020FEF748FF0020FEF7DD
:1054000045FFEF20FEF742FF2B20FEF75BFF002059
:10541000FEF73CFF0020FEF739FF0120FEF736FFC4
:105420003F20FEF733FFF620FEF74CFF0120FEF78A
:105430002DFF0020FEF72AFF0620FEF727FF2C2075
:10544000FEF740FFC820FEF795FE2620FEF73AFF44
:105450000120FEF71BFFE020FEF734FF0F20FEF7D0
:1054600015FF2920FEF712FF2420FEF70FFF0C2066
:10547000FEF70CFF0E20FEF709FF0920FEF706FFDE
:105480004E20FEF703FF7820FEF700FF3C20FEF7DA
:10549000FDFE0920FEF7FAFE1320FEF7F7FE0520B9
:1054A000FEF7F4FE1720FEF7F1FE1120FEF7EEFEE8
:1054B0000020FEF7EBFEE120FEF704FF0020FEF7E0
:1054C000E5FE1620FEF7E2FE1B20FEF7DFFE0420BD
:1054D000FEF7DCFE1120FEF7D9FE0720FEF7D6FE10
:1054E0003120FEF7D3FE3320FEF7D0FE4220FEF738
:1054F000CDFE0520FEF7CAFE0C20FEF7C7FE0A20EF
:10550000FEF7C4FE2820FEF7C1FE2F20FEF7BEFEE8
:105510000F20FEF7BBFE1120FEF7D4FEC820FEF7D9
:1055200029FE2920FEF7CEFEBDE810402C20FEF714
:10553000C9BE10B5FEF720FE0321D320FEF770FE92
:1055400080B210BDF8B504465E48FBF771FC5E4FB3
:1055500094F828003D0208B1384600E02846FBF7E1
:1055600075FC04F12D0059A10646E269FFF7A2FB84
:105570000323324673211920FBF79EF92846FBF7D7
:1055800065FC94F8290008B1384600E02846FBF78E
:105590005DFC54A13046626AFFF78CFB0323324660
:1055A00087211920FBF788F92846FBF74FFC94F870
:1055B0002B0008B1384600E02846FBF747FC60792D
:1055C00000902379E2784DA13046FFF773FB032367
:1055D00032469B211920FBF76FF9207A0090E3797E
:1055E000A2794EA13046FFF765FB03233246AF2177
:1055F0001920FBF761F92846FBF728FC94F82C00EA
:1056000008B1384600E02846FBF720FCE07A00901D
:10561000A37A627A4AA13046FFF74CFB0323324655
:10562000C3211920FBF748F9A07B0090637B227B04
:105630004BA13046FFF73EFB03233246D72119200A
:10564000FBF73AF92846FBF701FC207848B301281C
:1056500029D0022834D14BA13046FFF72BFB03237E
:105660003246F0210F20FBF727F96078022805D099
:10567000032803D0042801D0052821D1A078D8B16F
:1056800001281BD002281BD142A13046FFF712FB94
:105690000323F0213246A02001B0BDE8F040FBF723
:1056A0000BB93FA100E042A13046FFF703FB032303
:1056B000F02132460F20EFE741A1E6E742A1E4E7FF
:1056C000F8BD0000300000200000FFFF54313A20F8
:1056D00054656D70657261747572653A202530325B
:1056E0006443000054323A204C756D696E6F7369E3
:1056F00074793A202532646C7578000054333A206E
:105700005475726E73206F6E2061743A20253032AA
:10571000643A253032643A253032640054333A20FA
:105720005475726E73206F66662061743A2025305E
:1057300032643A253032643A253032640000000089
:1057400054343A205475726E73206F6E2061743A2F
:1057500020253032643A253032643A2530326400F4
:1057600054343A205475726E73206F6666206174EB
:105770003A20253032643A253032643A253032649A
:1057800000000000434F4E46494755524154494F8F
:105790004E0000005345434F4E44202000000000BF
:1057A000494E464F2020202020202020202000008D
:1057B00053454C4543542020202020202020200009
:1057C000484F5552202020004D494E555445202029
:1057D000000000002DE9F04F85B000254FF00409CE
:1057E0004FF00108CDF80090CDE901582E466946EA
:1057F00015480395FCF790FB134F07244FF0080A58
:1058000018374FF4002B00BFC7F800A00120FCF7A9
:105810004FFA04210C48FCF765FCA0402843C5B2B0
:10582000C7F800B00120FCF743FA641EECD5CDE9BF
:105830000098CDE9028669460348FCF76DFB05B088
:105840002846BDE8F08F00000018024010B500F0B7
:105850002FFCFFF7C3FCFFF7C1FCFFF7BFFCFFF70E
:10586000BDFCFFF7BBFCFFF7B9FCFFF7CFFCFFF770
:10587000CDFCFFF7E9FB012806D11548FBF7D8FA64
:1058800014A10A20FBF77AF84FF4A070FCF710FA85
:10589000FFF7A0FF0446FFF7A1FCFFF79BFF0146BF
:1058A00004F03F0001EB0020FAF71BFE9FED111BF7
:1058B00053EC112BFAF792FD9FED101B53EC112BBB
:1058C000FAF7E5FCFAF71AFE00EE100A10BD000028
:1058D000300000204C45495455524120444F20533C
:1058E000454E534F52204445552045525241444F56
:1058F000000000007B14AE47E17A843FCDCCCCCCD5
:10590000CCCC43C010B52DED028B00F0D1FBFFF7DE
:1059100065FCFFF763FCFFF761FCFFF75FFCFFF737
:105920005DFCFFF773FCFFF759FCFFF76FFCFFF717
:105930008BFB012806D11E48FBF77AFA1DA10A202D
:10594000FBF71CF85020FCF7B3F9FFF743FF0446C0
:10595000FFF744FCFFF73EFF014604F00F0001EBA8
:10596000002414FB04F0FAF7ABFD9FED1A1B53EC77
:10597000112BFAF733FD41EC180B2046FAF7B1FD75
:105980009FED161B53EC112BFAF728FD9FED151B0D
:1059900053EC112BFAF77BFC53EC182BFAF777FC3E
:1059A000FAF7ACFDBDEC028B00EE100A10BD000052
:1059B000300000204C45495455524120444F20535B
:1059C000454E534F52204445552045525241444F75
:1059D00000000000978357CD9EC4BABE27C286A799
:1059E00057CAA23F569FABADD85F00C001780129CE
:1059F0001CD0022919D14278FAB1012A21D01723EB
:105A00003B21022A21D0032A3AD0042A53D0052A66
:105A10000BD18278002A69D0012A70D0022A04D1E1
:105A2000827B002A72D0521E82737047417811B176
:105A3000491E417070470521FBE7C169491EC161DC
:105A40007047416A491E41627047827842B1012A1B
:105A50000DD0022AF8D1427982B1521E42717047AC
:105A6000C17811B1491EC1707047C3707047027987
:105A700012B1521E02717047017170474171704737
:105A8000827842B1012A0DD0022AF8D1027A82B17D
:105A9000521E02727047817911B1491E817170479F
:105AA00083717047C27912B1521EC2717047C171C1
:105AB000704701727047827842B1012A0DD0022AE4
:105AC000F8D1C27A82B1521EC2727047417A11B1C6
:105AD000491E4172704743727047827A12B1521E5A
